:020000040800F2
:1000000000500020492F0008992D00089F2D00085E
:10001000A52D0008AB2D0008B12D00080000000040
:10002000000000000000000000000000B72D0008E4
:10003000C32D000800000000CF2D0008DB2D0008B4
:10004000912F0008912F0008912F0008912F000890
:10005000912F0008912F0008912F0008912F000880
:10006000912F0008912F0008912F0008912F000870
:10007000912F0008912F0008912F0008E92D00080A
:10008000FD2D0008112E0008912F0008912F000867
:10009000912F0008912F0008912F0008912F000840
:1000A000912F0008252E0008912F0008912F00089D
:1000B0009D2E0008152F0008912F0008912F000891
:1000C000912F0008912F0008912F0008912F000810
:1000D000912F0008292F0008912F0008912F000868
:1000E000912F0008912F0008912F000800000000B8
:1000F0000000000000000000000000000000000000
:0C01000000000000000000005FF808F1A3
:1001100010B5054C237833B9044B13B10448AFF341
:1001200000800123237010BD280100200000000082
:10013000B069000808B5034B1BB103490348AFF38E
:10014000008008BD000000002C010020B0690008FC
:1001500081F0004102E000BF83F0004330B54FEA78
:1001600041044FEA430594EA050F08BF90EA020FE5
:100170001FBF54EA000C55EA020C7FEA645C7FEA78
:10018000655C00F0E2804FEA5454D4EB5555B8BF9B
:100190006D420CDD2C4480EA020281EA030382EA0C
:1001A000000083EA010180EA020281EA0303362D9E
:1001B00088BF30BD11F0004F4FEA01314FF4801C71
:1001C0004CEA113102D0404261EB410113F0004F83
:1001D0004FEA03334CEA133302D0524263EB43033A
:1001E00094EA050F00F0A780A4F10104D5F1200ED8
:1001F0000DDB02FA0EFC22FA05F2801841F1000133
:1002000003FA0EF2801843FA05F359410EE0A5F106
:1002100020050EF1200E012A03FA0EFC28BF4CF037
:10022000020C43FA05F3C01851EBE37101F00045ED
:1002300007D54FF0000EDCF1000C7EEB00006EEBFA
:100240000101B1F5801F1BD3B1F5001F0CD3490884
:100250005FEA30004FEA3C0C04F101044FEA4452DB
:1002600012F5800F80F09A80BCF1004F08BF5FEA62
:10027000500C50F1000041EB045141EA050130BD42
:100280005FEA4C0C404141EB010111F4801FA4F1E5
:100290000104E9D191F0000F04BF01460020B1FA3A
:1002A00081F308BF2033A3F10B03B3F120020CDA72
:1002B0000C3208DD02F1140CC2F10C0201FA0CF050
:1002C00021FA02F10CE002F11402D8BFC2F1200CB5
:1002D00001FA02F120FA0CFCDCBF41EA0C0190406B
:1002E000E41AA2BF01EB0451294330BD6FEA0404B4
:1002F0001F3C1CDA0C340EDC04F11404C4F120029F
:1003000020FA04F001FA02F340EA030021FA04F3B0
:1003100045EA030130BDC4F10C04C4F1200220FA07
:1003200002F001FA04F340EA0300294630BD21FA45
:1003300004F0294630BD94F0000F83F4801306BF0B
:1003400081F480110134013D4EE77FEA645C18BFFF
:100350007FEA655C29D094EA050F08BF90EA020F96
:1003600005D054EA000C04BF1946104630BD91EA8E
:10037000030F1EBF0021002030BD5FEA545C05D191
:100380004000494128BF41F0004130BD14F58004D0
:100390003CBF01F5801130BD01F0004545F0FE4144
:1003A00041F470014FF0000030BD7FEA645C1ABF79
:1003B000194610467FEA655C1CBF0B46024650EAB0
:1003C000013406BF52EA033591EA030F41F40021DC
:1003D00030BD00BF90F0000F04BF0021704730B562
:1003E0004FF4806404F132044FF000054FF0000137
:1003F00050E700BF90F0000F04BF0021704730B5F8
:100400004FF4806404F1320410F0004548BF4042CC
:100410004FF000013EE700BF42004FEAE2014FEA21
:1004200031014FEA02701FBF12F07F4393F07F4FFC
:1004300081F06051704732F07F4208BF704793F0FF
:100440007F4F04BF41F40021704730B54FF4607412
:1004500001F0004521F000411CE700BF50EA010215
:1004600008BF704730B54FF000050AE050EA0102BE
:1004700008BF704730B511F0004502D5404261EB2E
:1004800041014FF4806404F132045FEA915C3FF46F
:10049000D8AE4FF003025FEADC0C18BF03325FEA0C
:1004A000DC0C18BF033202EBDC02C2F1200300FABD
:1004B00003FC20FA02F001FA03FE40EA0E0021FAE2
:1004C00002F11444BDE600BF70B54FF0FF0C4CF4D0
:1004D000E06C1CEA11541DBF1CEA135594EA0C0F82
:1004E00095EA0C0F00F0DEF82C4481EA030621EABD
:1004F0004C5123EA4C5350EA013518BF52EA0335F8
:1005000041F4801143F4801338D0A0FB02CE4FF0A9
:100510000005E1FB02E506F00042E0FB03E54FF0D9
:100520000006E1FB03569CF0000F18BF4EF0010ED1
:10053000A4F1FF04B6F5007F64F5407404D25FEACD
:100540004E0E6D4146EB060642EAC62141EA555180
:100550004FEAC52040EA5E504FEACE2EB4F1FD0CC2
:1005600088BFBCF5E06F1ED8BEF1004F08BF5FEA40
:10057000500E50F1000041EB045170BD06F00046F2
:1005800046EA010140EA020081EA0301B4EB5C049F
:10059000C2BFD4EB0C0541EA045170BD41F4801197
:1005A0004FF0000E013C00F3AB8014F1360FDEBFBC
:1005B000002001F0004170BDC4F10004203C35DA98
:1005C0000C341BDC04F11404C4F1200500FA05F31B
:1005D00020FA04F001FA05F240EA020001F00042BC
:1005E00021F0004110EBD37021FA04F642EB060132
:1005F0005EEA430E08BF20EAD37070BDC4F10C045C
:10060000C4F1200500FA04F320FA05F001FA04F21F
:1006100040EA020001F0004110EBD37041F100010B
:100620005EEA430E08BF20EAD37070BDC4F1200516
:1006300000FA05F24EEA020E20FA04F301FA05F27E
:1006400043EA020321FA04F001F0004121FA04F226
:1006500020EA020000EBD3705EEA430E08BF20EAF6
:10066000D37070BD94F0000F0FD101F00046400030
:1006700041EB010111F4801F08BF013CF7D041EAB2
:10068000060195F0000F18BF704703F000465200B6
:1006900043EB030313F4801F08BF013DF7D043EA87
:1006A0000603704794EA0C0F0CEA135518BF95EA3D
:1006B0000C0F0CD050EA410618BF52EA4306D1D1C4
:1006C00081EA030101F000414FF0000070BD50EAE3
:1006D000410606BF1046194652EA430619D094EA6D
:1006E0000C0F02D150EA013613D195EA0C0F05D157
:1006F00052EA03361CBF104619460AD181EA0301AB
:1007000001F0004141F0FE4141F470014FF0000062
:1007100070BD41F0FE4141F4780170BD70B54FF0FD
:10072000FF0C4CF4E06C1CEA11541DBF1CEA13557D
:1007300094EA0C0F95EA0C0F00F0A7F8A4EB05045F
:1007400081EA030E52EA03354FEA013100F0888056
:100750004FEA03334FF0805545EA131343EA12631F
:100760004FEA022245EA111545EA10654FEA0026D4
:100770000EF000419D4208BF964244F1FD0404F58D
:10078000407402D25B084FEA3202B61A65EB0305E9
:100790005B084FEA32024FF480104FF4002CB6EBA6
:1007A000020E75EB030E22BFB61A754640EA0C0026
:1007B0005B084FEA3202B6EB020E75EB030E22BF66
:1007C000B61A754640EA5C005B084FEA3202B6EBA7
:1007D000020E75EB030E22BFB61A754640EA9C0066
:1007E0005B084FEA3202B6EB020E75EB030E22BF36
:1007F000B61A754640EADC0055EA060E18D04FEAF4
:10080000051545EA16754FEA06164FEAC30343EA93
:1008100052734FEAC2025FEA1C1CC0D111F4801F60
:100820000BD141EA00014FF000004FF0004CB6E759
:1008300011F4801F04BF01430020B4F1FD0C88BFF8
:10084000BCF5E06F3FF6AFAEB5EB030C04BFB6EB03
:10085000020C5FEA500C50F1000041EB045170BDF6
:100860000EF0004E4EEA113114EB5C04C2BFD4EB23
:100870000C0541EA045170BD41F480114FF0000EA7
:10088000013C90E645EA060E8DE60CEA135594EA23
:100890000C0F08BF95EA0C0F3FF43BAF94EA0C0F26
:1008A0000AD150EA01347FF434AF95EA0C0F7FF49B
:1008B00025AF104619462CE795EA0C0F06D152EAEF
:1008C00003353FF4FDAE1046194622E750EA4106D3
:1008D00018BF52EA43067FF4C5AE50EA41047FF4E4
:1008E0000DAF52EA43057FF4EBAE12E74FF0FF3C49
:1008F00006E000BF4FF0010C02E000BF4FF0010C1A
:100900004DF804CD4FEA410C7FEA6C5C4FEA430C92
:1009100018BF7FEA6C5C1BD001B050EA410C0CBFE1
:1009200052EA430C91EA030F02BF90EA020F002043
:10093000704710F1000F91EA030F58BF994208BFAA
:1009400090422CBFD8176FEAE37040F00100704767
:100950004FEA410C7FEA6C5C02D150EA013C07D1BE
:100960004FEA430C7FEA6C5CD6D152EA033CD3D009
:100970005DF8040B704700BF8446104662468C4603
:100980001946634600E000BF01B5FFF7B7FF002836
:1009900048BF10F1000F01BD4DF808EDFFF7F4FF5F
:1009A0000CBF012000205DF808FB00BF4DF808EDEA
:1009B000FFF7EAFF34BF012000205DF808FB00BF0D
:1009C0004DF808EDFFF7E0FF94BF012000205DF82F
:1009D00008FB00BF4DF808EDFFF7CEFF94BF0120E4
:1009E00000205DF808FB00BF4DF808EDFFF7C4FFDD
:1009F00034BF012000205DF808FB00BF4FEA410C26
:100A00007FEA6C5C02D150EA013C0AD14FEA430C08
:100A10007FEA6C5C02D152EA033C02D14FF0000045
:100A200070474FF0010070474FEA410212F5001283
:100A300015D211D56FF47873B3EB625212D94FEA25
:100A4000C12343F0004343EA505311F0004F23FA0F
:100A500002F018BF404270474FF00000704750EA64
:100A6000013005D111F0004008BF6FF00040704721
:100A70004FF00000704700BF4FEA4102B2F1E0437F
:100A800024BFB3F5001CDCF1FE5C0DD901F0004C75
:100A90004FEAC0024CEA5070B2F1004F40EB8300C5
:100AA00008BF20F00100704711F0804F21D113F1F1
:100AB0003872BCBF01F00040704741F480114FEA2A
:100AC0005252C2F11802C2F1200C10FA0CF320FAB3
:100AD00002F018BF40F001004FEAC1234FEAD323D0
:100AE00003FA0CFC40EA0C0023FA02F34FEA43033A
:100AF000CCE77FEA625307D150EA01331EBF4FF0C3
:100B0000FE4040F44000704701F0004040F0FE40DD
:100B100040F40000704700BF80F0004002E000BFDA
:100B200081F0004142001FBF5FEA410392EA030FD8
:100B30007FEA226C7FEA236C6AD04FEA1262D2EB22
:100B40001363C1BFD218414048404140B8BF5B4227
:100B5000192B88BF704710F0004F40F4000020F0C0
:100B60007F4018BF404211F0004F41F4000121F0D6
:100B70007F4118BF494292EA030F3FD0A2F1010220
:100B800041FA03FC10EB0C00C3F1200301FA03F15E
:100B900000F0004302D5494260EB4000B0F5000F81
:100BA00013D3B0F1807F06D340084FEA310102F140
:100BB0000102FE2A51D2B1F1004F40EBC25008BFF2
:100BC00020F0010040EA03007047490040EB0000BC
:100BD00010F4000FA2F10102EDD1B0FA80FCACF1EB
:100BE000080CB2EB0C0200FA0CF0AABF00EBC250EA
:100BF00052421843BCBFD0401843704792F0000FD8
:100C000081F4000106BF80F400000132013BB5E72A
:100C10004FEA41037FEA226C18BF7FEA236C21D0A0
:100C200092EA030F04D092F0000F08BF0846704705
:100C300090EA010F1CBF0020704712F07F4F04D1D3
:100C4000400028BF40F00040704712F100723CBFE6
:100C500000F50000704700F0004343F0FE4040F410
:100C6000000070477FEA226216BF08467FEA2363CE
:100C70000146420206BF5FEA412390EA010F40F4B9
:100C8000800070474FF0000304E000BF10F0004305
:100C900048BF40425FEA000C08BF704743F09643EC
:100CA00001464FF000001CE050EA010208BF704707
:100CB0004FF000030AE000BF50EA010208BF70478E
:100CC00011F0004302D5404261EB41015FEA010CA3
:100CD00002BF84460146002043F0B64308BFA3F19B
:100CE0008053A3F50003BCFA8CF2083AA3EBC2537D
:100CF00010DB01FA02FC634400FA02FCC2F120029C
:100D0000BCF1004F20FA02F243EB020008BF20F0D2
:100D10000100704702F1200201FA02FCC2F1200238
:100D200050EA4C0021FA02F243EB020008BF20EA2D
:100D3000DC7070474FF0FF0C1CEAD0521EBF1CEA5B
:100D4000D15392EA0C0F93EA0C0F6FD01A4480EA49
:100D5000010C400218BF5FEA41211ED04FF0006332
:100D600043EA501043EA5111A0FB01310CF000405E
:100D7000B1F5000F3EBF490041EAD3715B0040EA84
:100D8000010062F17F02FD2A1DD8B3F1004F40EB54
:100D9000C25008BF20F00100704790F0000F0CF027
:100DA000004C08BF49024CEA502040EA51207F3AEB
:100DB000C2BFD2F1FF0340EAC250704740F40000C6
:100DC0004FF00003013A5DDC12F1190FDCBF00F0B7
:100DD00000407047C2F10002410021FA02F1C2F165
:100DE000200200FA02FC5FEA310040F1000053EA01
:100DF0004C0308BF20EADC70704792F0000F00F04F
:100E0000004C02BF400010F4000F013AF9D040EA54
:100E10000C0093F0000F01F0004C02BF490011F4E8
:100E2000000F013BF9D041EA0C018FE70CEAD153E6
:100E300092EA0C0F18BF93EA0C0F0AD030F0004C66
:100E400018BF31F0004CD8D180EA010000F000401A
:100E5000704790F0000F17BF90F0004F084691F0D8
:100E6000000F91F0004F14D092EA0C0F01D1420212
:100E70000FD193EA0C0F03D14B0218BF084608D1DB
:100E800080EA010000F0004040F0FE4040F4000025
:100E9000704740F0FE4040F4400070474FF0FF0CB8
:100EA0001CEAD0521EBF1CEAD15392EA0C0F93EAFF
:100EB0000C0F69D0A2EB030280EA010C49024FEA51
:100EC000402037D04FF0805343EA111143EA10130A
:100ED0000CF000408B4238BF5B0042F17D024FF4C2
:100EE000000C8B4224BF5B1A40EA0C00B3EB510F9D
:100EF00024BFA3EB510340EA5C00B3EB910F24BF86
:100F0000A3EB910340EA9C00B3EBD10F24BFA3EB0A
:100F1000D10340EADC001B0118BF5FEA1C1CE0D1D2
:100F2000FD2A3FF650AF8B4240EBC25008BF20F085
:100F3000010070470CF0004C4CEA50207F32C2BFD9
:100F4000D2F1FF0340EAC250704740F400004FF076
:100F50000003013A37E792F0000F00F0004C02BFA7
:100F6000400010F4000F013AF9D040EA0C0093F071
:100F7000000F01F0004C02BF490011F4000F013BCB
:100F8000F9D041EA0C0195E70CEAD15392EA0C0F33
:100F900008D142027FF47DAF93EA0C0F7FF470AF6B
:100FA000084676E793EA0C0F04D14B023FF44CAFAE
:100FB00008466EE730F0004C18BF31F0004CCAD143
:100FC00030F000427FF45CAF31F000437FF43CAF7F
:100FD0005FE700BF4FF0FF3C06E000BF4FF0010CA1
:100FE00002E000BF4FF0010C4DF804CD4FEA400283
:100FF0004FEA41037FEA226C18BF7FEA236C11D0CD
:1010000001B052EA530C18BF90EA010F58BFB2EB7F
:10101000030088BFC81738BF6FEAE17018BF40F0FF
:10102000010070477FEA226C02D15FEA402C05D1B3
:101030007FEA236CE4D15FEA412CE1D05DF8040B38
:10104000704700BF844608466146FFE70FB5FFF7CB
:10105000C9FF002848BF10F1000F0FBD4DF808ED83
:10106000FFF7F4FF0CBF012000205DF808FB00BF74
:101070004DF808EDFFF7EAFF34BF012000205DF8CE
:1010800008FB00BF4DF808EDFFF7E0FF94BF01201B
:1010900000205DF808FB00BF4DF808EDFFF7D2FF18
:1010A00094BF012000205DF808FB00BF4DF808ED5B
:1010B000FFF7C8FF34BF012000205DF808FB00BF28
:1010C0004FEA4002B2F1FE4F0FD34FF09E03B3EB55
:1010D00012620DD94FEA002343F0004310F0004F95
:1010E00023FA02F018BF404270474FF000007047EB
:1010F00012F1610F01D1420205D110F0004008BF8A
:101100006FF0004070474FF00000704780B588B026
:1011100004AF7860642302930123019307F10F0366
:10112000009301237522D021786802F071FEFB7BC9
:10113000682B3DD10023BB736423029301230193E9
:1011400007F10E03009301236B22D021786802F08F
:1011500065FD0723BB73642302930123019307F109
:101160000E03009301231922D021786802F056FD66
:101170000023BB73642302930123019307F10E0341
:10118000009301231C22D021786802F047FD002340
:10119000BB73642302930123019307F10E030093B1
:1011A00001231B22D021786802F038FD002300E0E3
:1011B000012318461037BD4680BD00000000000026
:1011C0002DE9B04F94B004AF786039606423029386
:1011D0000E23019307F10803009301233B22D02142
:1011E000786802F015FE3B7A1B021AB27B7A1BB2BA
:1011F00013431AB23B681A80BB7A1B021AB2FB7AFD
:101200001BB213431AB23B685A803B7B1B021AB2D3
:101210007B7B1BB213431AB23B689A80BB7B1B02D9
:101220001AB2FB7B1BB21343FB863B7C1B021AB238
:101230007B7C1BB213431AB23B681A84BB7C1B0233
:101240001AB2FB7C1BB213431AB23B685A843B7D33
:101250001B021AB27B7D1BB213431AB23B689A84FD
:101260003B68B3F900301846FFF7C4F84FF00002AE
:10127000B74BFFF753FA02460B463968C1E9022320
:101280003B68B3F902301846FFF7B4F84FF000029C
:10129000AF4BFFF743FA02460B463968C1E9042316
:1012A0003B68B3F904301846FFF7A4F8A2A3D3E9CA
:1012B0000023FFF733FA02460B463968C1E90623DB
:1012C000B7F936301846FFF7E1FC0346A149184646
:1012D000FFF7E4FD0346A0491846FFF723FC034649
:1012E0001A463B681A643B68B3F920301846FFF78A
:1012F00081F893A3D3E90023FFF710FA02460B46C7
:101300003968C1E90A233B68B3F922301846FFF770
:1013100071F88BA3D3E90023FFF700FA02460B46CE
:101320003968C1E90C233B68B3F924301846FFF74C
:1013300061F883A3D3E90023FFF7F0F902460B46D7
:101340003968C1E90E2301F07DFE0246834B1B681C
:10135000D31A1846FFF73EF84FF00002804BFFF714
:10136000DDF902460B46C7E90A2301F06BFE02468F
:101370007A4B1A603B68B3F900301A463B68B3F900
:10138000003003FB02F23B68B3F9043019463B68B6
:10139000B3F9043003FB01F313441846FFF72AF8AE
:1013A00002460B461046194605F022F9C7E9080126
:1013B0004FF000024FF00003D7E90801FFF7ECFA05
:1013C0000346002B19D13B68B3F902301846FFF7EA
:1013D00011F8D7E90823FFF7A1F902460B4610469A
:1013E000194604F075FF58A3D3E90023FFF76CF802
:1013F00002460B46C7E90E2305E04FF000024FF00E
:101400000003C7E90E233B68B3F900305B4218467E
:10141000FEF7F0FF82468B463B68B3F9043018466E
:10142000FEF7E8FF02460B465046594605F0DEF847
:1014300045A3D3E90023FFF747F802460B46C7E967
:1014400006234FF00002474BD7E90601FFF7AEFA3B
:101450000346002B0AD03B68D3E914014FF0000289
:10146000414BFFF7C1FA0346002B14D14FF00002A5
:101470003D4BD7E90601FFF7B7FA0346002B15D01D
:101480003B68D3E914014FF00002364BFFF78EFAA8
:101490000346002B0AD03549D7E90623C1E90623C4
:1014A0003968D7E90623C1E9142312E03B68D3E980
:1014B0000C23D7E90A01CDE90201CDE90023D7E9E0
:1014C00006232A4800F056F802460B463968C1E95F
:1014D00014233B68D3E91423904623F000494FF0CE
:1014E0000002214B40464946FFF77EFA0346002B97
:1014F00008D03B68D3E90A23144683F000453B68D3
:10150000C3E90A453B6803F13004D4E90034D7E964
:101510000A12CDE90212CDE90034D7E90E231448AE
:1015200000F028F803460C463A68C2E9123400BFBE
:101530004037BD46BDE8B08F000000000029CC4018
:101540000000000000606040F8C1631ADCA54C4058
:101550000000D0400000AA43B81E12426C010020D7
:1015600000408F40008056C0008056404800002058
:1015700000000020B0B592B000AFF860C7E90023CA
:10158000FB6803F12004D4E900341A462346D7E966
:101590001601FEF7E1FD03460C46C7E91034FB686F
:1015A000D3E90645D7E91023D7E91801FEF78CFFE8
:1015B00002460B4620462946FEF7D0FD03460C4660
:1015C000FA68C2E90634FB68D3E90A45FB68D3E947
:1015D0001001D7E91823FEF777FF02460B461046A5
:1015E0001946FB68D3E90C23FEF7B6FD02460B460D
:1015F00010461946FB68D3E90E23FEF7ADFD0246FF
:101600000B4610461946FB68D3E90023FEF7A6FDFA
:1016100002460B4610461946D7E91823FEF754FF39
:1016200002460B4620462946FEF798FD03460C4627
:10163000FA68C2E90A34FB68D3E90C45FB68D3E9D0
:101640001001D7E91823FEF73FFF02460B4620465C
:101650002946FEF781FD03460C46FA68C2E90C34C0
:10166000FB68D3E90E45FB68D3E91001D7E91823DD
:10167000FEF72AFF02460B4620462946FEF76CFD80
:1016800003460C46FA68C2E90E34FB68D3E91045FC
:10169000FB68D3E90201D7E91823FEF715FF0246DC
:1016A0000B4620462946FEF759FD03460C46FA68CC
:1016B000C2E91034FB68D3E90A01FB6803F11004A6
:1016C000D4E900341A462346FEF748FD03460C468B
:1016D000C7E90E34FB68D3E90A01D7E90E23FFF707
:1016E0001DF803460C46C7E90434FB68D3E90E0134
:1016F000D7E90E23FFF712F803460C46C7E9063474
:10170000FB6803F11804D4E900341A462346D7E9EC
:101710000001FEF721FD03460C46C7E90C34FB68C7
:10172000D3E90645D7E90401D7E90C23FEF7CCFE3F
:1017300002460B4620462946FEF710FD03460C469E
:10174000FA68C2E90634FB68D3E90845D7E906011F
:10175000D7E90C23FEF7B8FE02460B462046294681
:10176000FEF7FCFC03460C46FA68C2E90834FB6845
:1017700003F12804D4E90034C7E90A34FB6803F113
:101780003004D4E90034C7E90834FB68D3E90A45DA
:10179000D7E90401D7E90A23FEF796FE02460B4675
:1017A00020462946FEF7D8FC03460C46FA68C2E9F3
:1017B0000A34FB68D3E90C45D7E90401D7E90823CB
:1017C000FEF782FE02460B4620462946FEF7C4FC81
:1017D00003460C46FA68C2E90C34FB68D3E90E45AF
:1017E000D7E90601D7E90A23FEF76EFE02460B464B
:1017F00020462946FEF7B0FC03460C46FA68C2E9CB
:101800000E34FB68D3E91045D7E90601D7E9082370
:10181000FEF75AFE02460B4620462946FEF79CFC80
:1018200003460C46FA68C2E91034FB6803F1180459
:10183000D4E90034184621464837BD46B0BD80B4CF
:1018400085B000AFF860B9607A60FA68BB689A4208
:1018500001DABB6806E0FA687B689A4201DD7B68C2
:1018600000E0FB6818461437BD4680BC7047000096
:1018700080B588B000AF786007F1100300221A60CD
:101880005A609A60DA6007F1080300221A605A6011
:101890001E4B1F4A1A601D4B23225A601B4B00220D
:1018A0009A607B68194AD360184B00221A61174B63
:1018B00000225A61154B00229A61144803F080FC03
:1018C0000346002B01D001F0ADF84FF480533B618B
:1018D00007F1100319460D4803F01CFE0346002BC8
:1018E00001D001F09FF80023BB600023FB6007F1EB
:1018F00008031946054803F0E9FF0346002B01D011
:1019000001F090F800BF2037BD4680BDBC03002029
:10191000002C014080B588B000AF786007F110035B
:1019200000221A605A609A60DA6007F10803002208
:101930001A605A601D4B4FF080421A601B4B2322E5
:101940005A601A4B00229A607B68184AD360174B82
:1019500000221A61154B00229A61144803F030FCF2
:101960000346002B01D001F05DF84FF480533B613A
:1019700007F1100319460D4803F0CCFD0346002B78
:1019800001D001F04FF80023BB600023FB6007F19A
:1019900008031946054803F099FF0346002B01D0C0
:1019A00001F040F800BF2037BD4680BD480400204C
:1019B000B0B588B000AFF860B9607A603B60B968D4
:1019C0007868FFF7ADF80346FB61254B1B681946A5
:1019D0007868FFF7A5F803461846FFF771FB034642
:1019E0000C226FF00B011846FFF729FF034618463B
:1019F000FFF74CF90346BB61F9693868FFF79AF9BC
:101A000003461C46B969386BFFF794F903461D4637
:101A1000144B1B681946B868FFF782F80346396B08
:101A20001846FFF787F9034619462846FFF778F866
:101A30000346F9681846FFF731FA0346194620466F
:101A4000FFF770F803467B61064ABB681360044ADF
:101A50007B6813607B6918462037BD46B0BD00BF68
:101A600084010020CC01002090B587B000AFF86061
:101A70007B600B467B8113463B813A897B89D31A75
:101A80009BB2FB82B7F916301E226FF01D0118467B
:101A9000FFF7D5FE03461846FFF7F8F80246204B3D
:101AA0001B6819461046FFF73DF803461A461C4BC3
:101AB0001A601B4B1B681846FFF702FB034642F2F5
:101AC000107218491846FFF7BAFE03461846FFF78A
:101AD000DDF80246124B1A60B7F916301846FFF7C8
:101AE000D5F8034679681846FFF724F903461C46E3
:101AF0000B4B1B68B96A1846FFF71CF90346F968D7
:101B00001846FFF717F9034619462046FFF70AF86B
:101B100003463B613B6918461C37BD4690BD00BF7C
:101B2000D8010020F0D8FFFF80B586B000AFF86084
:101B3000B9607A603B60BA68FB68D31A1846FFF751
:101B4000A5F8034679681846FFF7F4F803461846E7
:101B5000FFF7B6FA034650226FF04F011846FFF721
:101B60006EFE03461846FFF791F803467B61B7F90E
:101B700020301846FFF78AF8034639681846FFF701
:101B8000D9F8034619467869FEF7CCFF03463B6156
:101B90003B6918461837BD4680BD000080B584B04B
:101BA00000AF0346FB803D4BB3F900301A46B7F94E
:101BB0000630D31A022B09DD384BB3F900309BB243
:101BC000023B9BB21AB2354B1A8016E0334BB3F985
:101BD00000301A46B7F90630D31A13F1020F09DAAA
:101BE0002E4BB3F900309BB202339BB21AB22B4B8F
:101BF0001A8002E0294AFB881380284BB3F9003091
:101C00009BB21A4692001344DB009BB27B81B7F96A
:101C10000A30002B06D14FF6FF73FB60204B0022E9
:101C20001A7021E0B7F90A30002B0EDDB7F90A303F
:101C30001C4A92FBF3F3FB60194B01221A7001223C
:101C40000221194801F080FE0EE0B7F90A305B422C
:101C5000144A92FBF3F3FB60114BFF221A7000222F
:101C60000221114801F070FEFB68B3F5803F02DBF2
:101C70004FF6FF73FB60F868FFF7FAFD0B4B1B682C
:101C80005A6A0A4BDB689A4203D9084B1B68002248
:101C90005A6200BF1037BD4680BD00BFEC01002076
:101CA000B201002080841E0000080140BC03002017
:101CB00080B584B000AF0346FB803D4BB3F90030E4
:101CC0001A46B7F90630D31A022B09DD384BB3F99F
:101CD00000309BB2023B9BB21AB2354B1A8016E021
:101CE000334BB3F900301A46B7F90630D31A13F163
:101CF000020F09DA2E4BB3F900309BB202339BB2CC
:101D00001AB22B4B1A8002E0294AFB881380284B19
:101D1000B3F900309BB21A4692001344DB009BB229
:101D20007B81B7F90A30002B06D14FF6FF73FB60B9
:101D3000204B00221A7021E0B7F90A30002B0EDD8B
:101D4000B7F90A301C4A92FBF3F3FB60194B0122EE
:101D50001A7000220821194801F0F6FD0EE0B7F9CB
:101D60000A305B42144A92FBF3F3FB60114BFF22F3
:101D70001A7001220821114801F0E6FDFB68B3F555
:101D8000803F02DB4FF6FF73FB60F868FFF7C2FD90
:101D90000B4B1B685A6A0A4BDB689A4203D9084B03
:101DA0001B6800225A6200BF1037BD4680BD00BFCD
:101DB000EE010020E401002080841E0000080140A4
:101DC0004804002080B584B000AF78607B681A6852
:101DD000684B1B689A4240F0C980032266496548F7
:101DE00003F031FE644B1B78502B12D1624B5B78B1
:101DF0001B02614A927813431846FEF747FF0346D9
:101E00005E491846FFF74AF803461A465C4B1A60CB
:101E1000A7E0594B1B78442B12D1574B5B781B0220
:101E2000554A927813431846FEF730FF034653494C
:101E30001846FFF733F803461A46524B1A6090E0F3
:101E40004D4B1B78702B12D14B4B5B781B024A4ACF
:101E5000927813431846FEF719FF03464749184680
:101E6000FFF71CF803461A46474B1A6079E0424BCD
:101E70001B78642B12D1404B5B781B023E4A927850
:101E800013431846FEF702FF03463C491846FFF786
:101E900005F803461A463D4B1A6062E0364B1B7844
:101EA000742B12D1344B5B781B02334A9278134364
:101EB0001846FEF7EBFE034630491846FEF7EEFFE4
:101EC00003461A46324B1A604BE02B4B1B78542BBF
:101ED00012D1294B5B781B02274A9278134318468C
:101EE000FEF7D4FE034625491846FEF7D7FF034602
:101EF0001A46284B1A6034E01F4B1B78582B08D128
:101F00001D4B5B781B021C4A92781343224A1360D4
:101F100027E0194B1B78592B08D1174B5B781B0214
:101F2000154A927813431D4A13601AE0124B1B782E
:101F3000412B16D1104B5B781B021AB20E4B9B78CB
:101F40001BB21343FB81B7F90E301846FEF79EFE15
:101F5000034613491846FEF7A1FF03461A46114BE4
:101F60001A604FF40051104801F006FD00BF103711
:101F7000BD4680BD74030020900400200000C842CC
:101F800090000020940000209C000020A000002071
:101F90009800002044010020AC000020B000002088
:101FA00000002041480100200010014080B483B0AF
:101FB00000AF786039607B68012B06D13B68022B4B
:101FC00003D13C4B08221A606EE07B68012B07D1DD
:101FD0003B68002B04D1374B6FF007021A6063E0B7
:101FE0007B68002B0AD13B68012B07D1324B6FF085
:101FF00031021A60314B32221A6055E07B68022BA5
:102000000AD13B68012B07D12B4B32221A602B4B94
:102010006FF031021A6047E07B68002B09D13B6802
:10202000022B06D1244B19221A60244B32221A604B
:102030003AE07B68022B09D13B68022B06D11E4B8C
:1020400032221A601D4B19221A602DE07B68002B8A
:102050000BD13B68002B08D1174B6FF018021A60A8
:10206000164B6FF031021A601EE07B68022B0BD119
:102070003B68002B08D1104B6FF031021A600F4BF8
:102080006FF018021A600FE07B68012B0CD13B68DF
:10209000012B09D1084B00221A60084B00221A605C
:1020A000044B00221A60FFE700BF0C37BD4680BC1E
:1020B000704700BF54010020500100204C01002057
:1020C000B0B584B002AF00F065FF00F089FA00F00F
:1020D0003DFC00F00DFC00F0F7FA00F045FB00F0CD
:1020E000C5FA00F08DFB00F0D9FBAD4803F0B8F85D
:1020F000AC4803F0B5F8AC4803F0B2F80322AB49A2
:10210000AB4803F0A0FCAB48FFF700F8AA4B1A68F5
:10211000AA4B1B6819461046FFF748FFA84B1A68E0
:10212000A84B1B68D31A1846FEF764F996A3D3E9A7
:102130000023FEF7C9F903460C4618462146FEF770
:102140009BFC0246A04B1A609D4B1B689D4A136086
:10215000954B1B685B6A1A46994B1A609B4B1B6830
:102160009B4A13609B499348FFF72AF8994B03F168
:102170005004D4E9003418462146FEF77DFC02469F
:10218000954B1B6819461046FEF7CCFC03461C46CF
:10219000924B1B681846FEF779FD03461946204608
:1021A000FEF7C0FC03461A468D4B1A608C4B1A682A
:1021B0008C4B1B6819461046FEF7B4FC03461A46C2
:1021C000824B1A60884BB3F900301A46874BB3F93B
:1021D00000301344DA0F13445B101AB2844B1A8098
:1021E0007A4B1A687A4B1B6819461046FEF798FC22
:1021F00003461846FEF710F94FF000027D4BFEF73C
:1022000063F903460C4618462146FEF70DFC0346CB
:10221000FB80FA88764BB3F900309BB2D31A9BB29D
:10222000BB80754B1B681846FEF7F6F858A3D3E938
:102230000023FEF749F903460C4625461C46B7F92C
:1022400004301846FEF722FD03461846FEF7E4F870
:1022500051A3D3E90023FEF737F902460B46204687
:102260002946FDF77BFF03460C4618462146FEF73C
:1022700003FC0246604B1A60604B1868604B19689B
:10228000604B1A68604B1C68574BB3F900300093E1
:102290002346FFF749FC03461846FEF711FF0346A5
:1022A0001AB25A4B1A805A4B18685A4B1968554B38
:1022B0001A68554B1C684D4BB3F900300093234608
:1022C000FFF732FC03461846FEF7FAFE03461AB241
:1022D000514B1A804D4BB3F900301A464E4BB3F9AF
:1022E00000301344DA0F13445B101AB24B4B1A80C0
:1022F0004A4BB3F9003064226FF063011846FFF7D0
:102300009EFA03461AB2454B1A80454B4FF0000225
:102310001A602D4B1C68384B1B681846FEF7D0FE20
:10232000034619B23D4BB3F900203E4B18683E4BB3
:102330001B68009303462046FFF796FB0246384B86
:102340001A60374B1B681846FEF7BAFE0446374B37
:102350001B6883F000431846FEF7B2FE0546334B78
:102360001B681846FEF7ACFE03461A46294620466F
:10237000FFF765FA03461846FEF788FC0246284B2D
:102380001A6055E0AFF300808DEDB5A0F7C6B03E02
:10239000CDCCCCCCCCCCEC3F9A9999999999B93FBA
:1023A000BC03002048040020E80200209004002024
:1023B000740300203C020020AC000020B00000208C
:1023C0009401002090010020DC010020AC010020DD
:1023D000D00100209002002048010020540100207C
:1023E000B8030020A8000020EC010020EE0100202E
:1023F000C801002000003940D40100209C010020C9
:10240000600100209C000020A0000020BA010020F4
:1024100064010020C4010020B401002080010020DC
:102420005C0100209800002044010020A40000204E
:102430005B4B18685B4B19685B4B1A685B4B1C68FD
:102440005B4B1B6800932346FFF7B2FA0246594BD9
:102450001B6819461046FEF765FB03461A46554BA6
:102460001A60544B1B681846FEF72AFE03464FF4C9
:10247000A07251491846FFF7E2F903461846FEF7E5
:1024800005FC02464B4B1A604C4B1B681846FEF786
:10249000FDFB0246474B1B6819461046FEF742FB00
:1024A00003461846FEF70CFE03461AB2444B1A8048
:1024B000444B1B681846FEF7E9FB02463D4B1B6880
:1024C00019461046FEF72EFB03461846FEF7F8FDA8
:1024D00003461AB23C4B1A80394BB3F900304FF423
:1024E000A07235491846FFF7AAF903461AB2344BD1
:1024F0001A80354BB3F900304FF4A0722E491846BC
:10250000FFF79DF903461AB22F4B1A8046233B6012
:102510003868FEF7BBFB0246224B1B681946104683
:10252000FEF7C4FD0346002B20D03B685B421846F3
:10253000FEF7ACFB02461B4B1B6819461046FEF724
:1025400097FD0346002B11D0002220211F4801F0E7
:10255000FBF91B4BB3F900301846FFF71FFB1A4B72
:10256000B3F900301846FFF7A3FB17E00122202142
:10257000164801F0E9F90020FFF710FB0020FFF7F3
:1025800097FB134B00221A60124B00221A60124B69
:1025900000221A80114B4FF000021A60B6E500BF0E
:1025A000DC010020AC0100205C0100209000002034
:1025B0009400002070010020C0FEFFFF4C010020AD
:1025C000B001002050010020580100200008014007
:1025D0009C0100206401002080010020E80100200F
:1025E00080B590B000AF07F11803282200211846EB
:1025F00003F064FE3B1D00221A605A609A60DA60A4
:102600001A610123BB614FF48033FB6100233B62FD
:102610000123BB6202237B634FF48033BB634FF41F
:10262000E013FB6307F11803184602F0ADF9034607
:10263000002B01D000F0F6F90F237B600223BB6072
:102640000023FB604FF480633B614FF480637B6148
:102650003B1D0221184602F017FC0346002B01D057
:1026600000F0E0F900BF4037BD4680BD80B500AF47
:10267000124B134A1A60114B124A5A600F4B002238
:102680009A600E4B0022DA600C4B4FF480421A61C4
:102690000A4B00225A61094B00229A61074B002223
:1026A000DA61064B00221A62044801F07FF9034602
:1026B000002B01D000F0B6F900BF80BD3C02002025
:1026C00000540040A086010080B586B000AF07F13D
:1026D000080300221A605A609A60DA603B460022C2
:1026E0001A605A601E4B1F4A1A601D4B23225A6003
:1026F0001B4B00229A601A4B4FF6FF72DA60184BA0
:1027000000221A61164B00225A61154B00229A6171
:10271000134802F055FD0346002B01D000F082F96A
:102720004FF48053BB6007F1080319460C4802F0D0
:10273000F1FE0346002B01D000F074F900233B604A
:1027400000237B603B461946054803F0BFF803466B
:10275000002B01D000F066F900BF1837BD4680BDE0
:10276000BC030020002C014080B586B000AF07F10B
:10277000080300221A605A609A60DA603B46002221
:102780001A605A601D4B4FF080421A601B4B232287
:102790005A601A4B00229A60184B4FF6FF72DA60AB
:1027A000164B00221A61154B00229A61134802F061
:1027B00007FD0346002B01D000F034F94FF480539D
:1027C000BB6007F1080319460C4802F0A3FE03465C
:1027D000002B01D000F026F900233B6000237B6032
:1027E0003B461946054803F071F80346002B01D01B
:1027F00000F018F900BF1837BD4680BD480400201E
:1028000080B586B000AF07F1080300221A605A6055
:102810009A60DA603B4600221A605A601D4B1E4ADD
:102820001A601C4B47225A601A4B00229A60194BBF
:102830004FF6FF72DA60174B00221A61154B002227
:102840009A61144802F0BCFC0346002B01D000F052
:10285000E9F84FF48053BB6007F1080319460D48AF
:1028600002F058FE0346002B01D000F0DBF80023F5
:102870003B6000237B603B461946064803F026F880
:102880000346002B01D000F0CDF800BF1837BD463D
:1028900080BD00BFE80200200004004080B500AF0A
:1028A000114B124A1A60104B4FF4E1325A600E4B32
:1028B00000229A600C4B0022DA600B4B00221A6156
:1028C000094B0C225A61084B00229A61064B0022E8
:1028D000DA61054803F06AF80346002B01D000F0E6
:1028E000A1F800BF80BD00BF740300200038014084
:1028F00080B582B000AF144B5B69134A43F001030B
:102900005361114B5B6903F001037B607B6800221C
:1029100000210F2000F077FC0F2000F090FC002237
:102920000021102000F06FFC102000F088FC002235
:102930000021112000F067FC112000F080FC00BF96
:102940000837BD4680BD00BF0010024080B588B08A
:1029500000AF07F1100300221A605A609A60DA6033
:102960002D4B9B692C4A43F0100393612A4B9B69C2
:1029700003F01003FB60FB68274B9B69264A43F07A
:1029800020039361244B9B6903F02003BB60BB6869
:10299000214B9B69204A43F0040393611E4B9B69C2
:1029A00003F004037B607B681B4B9B691A4A43F06E
:1029B00008039361184B9B6903F008033B603B6875
:1029C00000224FF40051154800F0BEFF00223E21C6
:1029D000134800F0B9FF4FF400533B6101237B61C2
:1029E0000023BB610223FB6107F1100319460B486A
:1029F00000F050FE3E233B6101237B610023BB615D
:102A00000223FB6107F110031946054800F042FE5E
:102A100000BF2037BD4680BD0010024000100140BD
:102A20000008014080B400AF72B6FEE780B584B004
:102A300000AF164B9B69154A43F001039361134B9A
:102A40009B6903F00103BB60BB68104BDB690F4A55
:102A500043F08053D3610D4BDB6903F080537B60FF
:102A60007B68062000F0C4FB094B5B68FB60FB68D9
:102A700023F0E063FB60FB6843F00073FB60044AF3
:102A8000FB68536000BF1037BD4680BD0010024098
:102A90000000014080B58AB000AF786007F11403F0
:102AA00000221A605A609A60DA607B681B68444AA8
:102AB000934240F08180434B9B69424A43F00803B4
:102AC0009361404B9B6903F008033B613B694FF402
:102AD00040737B611223BB6103233B6207F1140344
:102AE0001946394800F0D6FD384B5B687B627B6A3B
:102AF00043F0E0637B627B6A43F002037B62334A0C
:102B00007B6A53602F4BDB692E4A43F40013D36179
:102B10002C4BDB6903F40013FB60FB682C4B2D4A44
:102B20001A602B4B00225A60294B00229A60284BD6
:102B30008022DA60264B00221A61254B00225A615E
:102B4000234B00229A61224B4FF40052DA61204855
:102B500000F090FB0346002B01D0FFF763FF7B687A
:102B60001B4A9A631A4A7B6853621B4B1B4A1A60C2
:102B7000194B10225A60184B00229A60164B802283
:102B8000DA60154B00221A61134B00225A61124B76
:102B900000229A61104B4FF40052DA610E4800F0A7
:102BA00069FB0346002B01D0FFF73CFF7B680A4A14
:102BB0005A63094A7B68536200BF2837BD4680BD0F
:102BC0000054004000100240000C01400000014091
:102BD0000404002080000240F80100206C00024044
:102BE00080B586B000AF78607B681B68274A934247
:102BF00014D1274B9B69264A43F400639361244B0D
:102C00009B6903F400637B617B6901220021192029
:102C100000F0F9FA192000F012FB32E07B681B6823
:102C2000B3F1804F14D11A4BDB69194A43F0010309
:102C3000D361174BDB6903F001033B613B69012260
:102C400000211C2000F0DFFA1C2000F0F8FA18E048
:102C50007B681B680F4A934213D10D4BDB690C4A0A
:102C600043F00203D3610A4BDB6903F00203FB600C
:102C7000FB68002200211D2000F0C5FA1D2000F095
:102C8000DEFA00BF1837BD4680BD00BF002C0140F2
:102C9000001002400004004080B588B000AF7860AA
:102CA00007F1100300221A605A609A60DA607B68AC
:102CB0001B68344A934260D1334B9B69324A43F4D8
:102CC00080439361304B9B6903F48043FB60FB6856
:102CD0002D4B9B692C4A43F0040393612A4B9B695B
:102CE00003F00403BB60BB684FF400733B61022335
:102CF0007B610323FB6107F110031946234800F0B1
:102D0000C9FC4FF480633B6100237B610023BB61FE
:102D100007F1100319461D4800F0BCFC1C4B1D4A6E
:102D20001A601B4B00225A60194B00229A60184B04
:102D30008022DA60164B00221A61154B00225A617C
:102D4000134B00229A61124B4FF40052DA61104883
:102D500000F090FA0346002B01D0FFF763FE7B687A
:102D60000B4A9A630A4A7B6853620022002125209D
:102D700000F049FA252000F062FA00BF2037BD4676
:102D800080BD00BF00380140001002400008014033
:102D9000300300205800024080B400AFFEE780B44A
:102DA00000AFFEE780B400AFFEE780B400AFFEE7FF
:102DB00080B400AFFEE780B400AF00BFBD4680BC6A
:102DC000704780B400AF00BFBD4680BC704780B480
:102DD00000AF00BFBD4680BC704780B500AF00F0BB
:102DE0001FF900BF80BD000080B500AF024800F0B1
:102DF0004BFB00BF80BD00BF3003002080B500AF9B
:102E0000024800F041FB00BF80BD00BFF801002078
:102E100080B500AF024800F037FB00BF80BD00BFA7
:102E20000404002080B582B000AF184802F06AFAAE
:102E3000174B93F90030002B24D0012204211548B0
:102E400000F082FD00237B6003E000BF7B6801335C
:102E50007B607B68312BF8DD0D4B93F90030002B44
:102E600005DD0D4B1B68013B0B4A136004E00A4B68
:102E70001B680133084A136000220421054800F052
:102E800063FD00E000BF0837BD4680BDBC030020E5
:102E9000B2010020000801409C01002080B582B0F2
:102EA00000AF184802F02EFA174B93F90030002BB0
:102EB00024D001221021154800F046FD00237B603C
:102EC00003E000BF7B6801337B607B68312BF8DD5A
:102ED0000D4B93F90030002B05DD0D4B1B68013BBA
:102EE0000B4A136004E00A4B1B680133084A136065
:102EF00000221021054800F027FD00E000BF083740
:102F0000BD4680BD48040020E401002000080140C7
:102F10006401002080B500AF024802F0F3F900BF61
:102F200080BD00BFE802002080B500AF024802F07B
:102F3000BBFD00BF80BD00BF7403002080B400AFA4
:102F400000BFBD4680BC70470C480D490D4A0023A8
:102F500002E0D458C4500433C4188C42F9D30A4A4E
:102F60000A4C002301E013600432A242FBD3FFF7B6
:102F7000E5FF03F07FF9FFF7A3F87047000000209A
:102F800028010020486A0008280100209804002039
:102F9000FEE7000080B500AF084B1B68074A43F00E
:102FA00010031360032000F023F9002000F008F85C
:102FB000FFF73CFD0023184680BD00BF0020024003
:102FC00080B582B000AF7860124B1A68124B1B7844
:102FD00019464FF47A73B3FBF1F3B2FBF3F31846DF
:102FE00000F03BF90346002B01D001230EE07B6883
:102FF0000F2B0AD8002279684FF0FF3000F003F958
:10300000064A7B681360002300E001231846083756
:10301000BD4680BDB4000020BC000020B8000020E8
:1030200080B400AF054B1B781A46054B1B68134450
:10303000034A136000BFBD4680BC7047BC0000203F
:103040009404002080B400AF024B1B681846BD46B4
:1030500080BC70479404002080B485B000AF7860D5
:103060007B6803F00703FB600C4BDB68BB60BA684E
:103070004FF6FF031340BB60FB681A02BB681343A3
:1030800043F0BF6343F40033BB60044ABB68D360C2
:1030900000BF1437BD4680BC704700BF00ED00E0A4
:1030A00080B400AF044BDB681B0A03F0070318462B
:1030B000BD4680BC704700BF00ED00E080B483B027
:1030C00000AF0346FB7197F90730002B0BDBFB7950
:1030D00003F01F02064997F907305B09012000FA47
:1030E00002F241F8232000BF0C37BD4680BC704778
:1030F00000E100E080B483B000AF03463960FB71AB
:1031000097F90730002B0ADB3B68DAB20C4997F9D4
:1031100007301201D2B20B4483F800230AE03B6867
:10312000DAB20849FB7903F00F03043B1201D2B273
:103130000B441A7600BF0C37BD4680BC704700BFF9
:1031400000E100E000ED00E080B489B000AFF8607D
:10315000B9607A60FB6803F00703FB61FB69C3F1A8
:103160000703042B28BF0423BB61FB690433062B30
:1031700002D9FB69033B00E000237B614FF0FF3283
:10318000BB6902FA03F3DA43BB681A407B699A40D1
:103190004FF0FF317B6901FA03F3D9437B680B40A1
:1031A000134318462437BD4680BC704780B582B0B3
:1031B00000AF78607B68013BB3F1807F01D30123CE
:1031C0000FE00A4A7B68013B53600F214FF0FF304C
:1031D000FFF790FF054B00229A60044B07221A600C
:1031E000002318460837BD4680BD00BF10E000E050
:1031F00080B582B000AF78607868FFF72DFF00BF20
:103200000837BD4680BD80B586B000AF0346B960C3
:103210007A60FB7300237B61FFF742FF78617A6875
:10322000B9687869FFF790FF024697F90F301146A9
:103230001846FFF75FFF00BF1837BD4680BD80B559
:1032400082B000AF0346FB7197F907301846FFF7CD
:1032500035FF00BF0837BD4680BD80B582B000AFE6
:1032600078607868FFF7A2FF034618460837BD4626
:1032700080BD000080B485B000AF78600023FB60A3
:103280007B68002B01D1012343E07B681B681A4651
:10329000224B1344224AA2FB03231B099A007B689A
:1032A0001A647B681F4ADA637B68022283F8212054
:1032B0007B681B681B68FB60FB6823F47F5323F06B
:1032C0003003FB607B685A687B689B681A437B68A5
:1032D000DB681A437B681B691A437B685B691A4386
:1032E0007B689B691A437B68DB691343FA68134365
:1032F000FB607B681B68FA681A607B6800229A632F
:103300007B68012283F821207B68002283F820203B
:10331000002318461437BD4680BC7047F8FFFDBF38
:10332000CDCCCCCC0000024080B485B000AF78603A
:103330000023FB737B6893F82130022B08D07B6855
:1033400004229A637B68002283F82020012320E076
:103350007B681B681A687B681B6822F00E021A6083
:103360007B681B681A687B681B6822F001021A6080
:103370007B681A6C7B68DB6B012101FA02F25A60F0
:103380007B68012283F821207B68002283F82020BB
:10339000FB7B18461437BD4680BC704780B584B0AF
:1033A00000AF78600023FB737B6893F82130022B19
:1033B00005D07B6804229A630123FB7351E07B688C
:1033C0001B681A687B681B6822F00E021A607B6813
:1033D0001B681A687B681B6822F001021A607B6810
:1033E0001B68224A934229D07B681B68204A93427B
:1033F00022D07B681B681F4A93421AD07B681B68E7
:103400001D4A934212D07B681B681C4A93420AD023
:103410007B681B681A4A934202D14FF480130EE076
:103420004FF080730BE04FF4803308E04FF480538B
:1034300005E04FF4807302E0102300E00123114AFD
:1034400053607B68012283F821207B68002283F887
:1034500020207B685B6B002B03D07B685B6B7868FC
:103460009847FB7B18461037BD4680BD08000240D8
:103470001C0002403000024044000240580002405C
:103480006C0002400000024080B584B000AF78605C
:103490007B68DB6B1B68FB607B681B681B68BB6021
:1034A0007B681B6C04229A40FB681340002B4FD0B2
:1034B000BB6803F00403002B4AD07B681B681B68C1
:1034C00003F02003002B07D17B681B681A687B6818
:1034D0001B6822F004021A607B681B68664A9342EC
:1034E00029D07B681B68654A934222D07B681B68A1
:1034F000634A93421AD07B681B68624A934212D097
:103500007B681B68604A93420AD07B681B685F4AED
:10351000934202D14FF480030EE04FF080630BE042
:103520004FF4802308E04FF4804305E04FF48063BC
:1035300002E0402300E00423554A53607B68DB6AC5
:10354000002B00F094807B68DB6A786898478EE0F7
:103550007B681B6C02229A40FB681340002B56D0FC
:10356000BB6803F00203002B51D07B681B681B680B
:1035700003F02003002B0BD17B681B681A687B6863
:103580001B6822F00A021A607B68012283F821205E
:103590007B681B68384A934229D07B681B68374A8E
:1035A000934222D07B681B68354A93421AD07B68CD
:1035B0001B68344A934212D07B681B68324A93429C
:1035C0000AD07B681B68314A934202D14FF4001342
:1035D0000EE04FF000730BE04FF4003308E04FF4BF
:1035E000005305E04FF4007302E0202300E00223C3
:1035F000274A53607B68002283F820207B689B6AFF
:10360000002B34D07B689B6A786898472FE07B68F2
:103610001B6C08229A40FB681340002B28D0BB6823
:1036200003F00803002B23D07B681B681A687B68B3
:103630001B6822F00E021A607B681A6C7B68DB6BD9
:10364000012101FA02F25A607B6801229A637B68C9
:10365000012283F821207B68002283F820207B68E8
:103660001B6B002B04D07B681B6B7868984700BFEE
:1036700000BF1037BD4680BD080002401C0002405C
:103680003000024044000240580002406C000240FA
:103690000000024080B48BB000AF78603960002336
:1036A0007B6200233B6227E101227B6A02FA03F37B
:1036B000FB613B681B68FA691340BB61BA69FB692F
:1036C0009A4240F016813B685B68122B34D0122B73
:1036D0000DD8022B2BD0022B04D8002B31D0012B7C
:1036E0001CD048E0032B43D0112B1BD043E0894A68
:1036F000934226D0874A934206D8874A934220D0E5
:10370000864A93421DD036E0854A934219D0854AB5
:10371000934216D0844A934213D02CE03B68DB6876
:103720003B6228E03B68DB6804333B6223E03B6894
:10373000DB6808333B621EE03B68DB680C333B62AE
:1037400019E03B689B68002B02D104233B6212E026
:103750003B689B68012B05D108233B627B68FA69B3
:103760001A6108E008233B627B68FA695A6102E04B
:1037700000233B6200BFBB69FF2B01D87B6801E0DF
:103780007B6804337B61BB69FF2B02D87B6A9B009B
:1037900002E07B6A083B9B003B617B691A680F2152
:1037A0003B6901FA03F3DB431A40396A3B6901FACA
:1037B00003F31A437B691A603B685B6803F080532C
:1037C000002B00F09680594B9B69584A43F0010347
:1037D0009361564B9B6903F00103BB60BB68544A7D
:1037E0007B6A9B08023352F82330FB607B6A03F04C
:1037F00003039B000F2202FA03F3DB43FA68134032
:10380000FB607B684B4A934213D07B684A4A9342E1
:103810000DD07B68494A934207D07B68484A93425F
:1038200001D1032306E0042304E0022302E0012384
:1038300000E000237A6A02F0030292009340FA68E3
:103840001343FB603A497B6A9B080233FA6841F8EC
:1038500023203B685B6803F48033002B06D0394B90
:103860001A683849BB6913430B6006E0354B1A6888
:10387000BB69DB43334913400B603B685B6803F46F
:103880000033002B06D02F4B5A682E49BB691343D7
:103890004B6006E02B4B5A68BB69DB432949134058
:1038A0004B603B685B6803F48013002B06D0254B0C
:1038B0009A682449BB6913438B6006E0214B9A68E0
:1038C000BB69DB431F4913408B603B685B6803F4B3
:1038D0000013002B06D01B4BDA681A49BB6913434F
:1038E000CB6006E0174BDA68BB69DB431549134030
:1038F000CB607B6A01337B623B681A687B6A22FA81
:1039000003F3002B7FF4D0AE00BF2C37BD4680BC44
:10391000704700BF000021100000111000001210BD
:103920000000311000003210000022100010024090
:103930000000014000080140000C0140001001405F
:10394000001401400004014080B483B000AF7860EF
:103950000B467B8013467B707B78002B03D07A88E4
:103960007B681A6103E07B881A047B681A6100BFD8
:103970000C37BD4680BC704780B485B000AF78601E
:103980000B467B807B68DB68FB607A88FB681340B2
:103990001A04FB68D9437B880B401A437B681A6181
:1039A00000BF1437BD4680BC7047000080B584B0AE
:1039B00000AF78607B68002B01D101231FE17B6899
:1039C00093F83D30DBB2002B06D17B68002283F8F0
:1039D0003C207868FFF75EF87B68242283F83D205E
:1039E0007B681B681A687B681B6822F001021A60FA
:1039F0007B681B681A687B681B6842F400421A6087
:103A00007B681B681A687B681B6822F400421A6096
:103A100001F090FBF8607B685B687B4A934207D8B3
:103A2000FB687A4A934294BF01230023DBB206E08D
:103A3000FB68774A934294BF01230023DBB2002B3B
:103A400001D00123DBE0FB68724AA2FB03239B0C3D
:103A5000BB607B681B685B6823F03F017B681B6869
:103A6000BA680A435A607B681B681B6A23F03F01EF
:103A70007B685B68644A934202D8BB68013309E003
:103A8000BB684FF4967202FB03F3634AA2FB032365
:103A90009B0901337A6812680B4313627B681B68C9
:103AA000DB6923F44F4222F0FF027B685B685649D2
:103AB0008B420DD8FB68591E7B685B685B00B1FBCD
:103AC000F3F30133C3F30B03042B38BF04234FE09C
:103AD0007B689B68002B11D1FB68581E7B68596876
:103AE0000B465B000B44B0FBF3F30133C3F30B0352
:103AF000002B0CBF01230023DBB212E0FB68581E31
:103B00007B6859680B469B000B4499000B44B0FB43
:103B1000F3F30133C3F30B03002B0CBF012300238A
:103B2000DBB2002B01D0012322E07B689B68002BD5
:103B30000ED1FB68581E7B6859680B465B000B442E
:103B4000B0FBF3F30133C3F30B0343F400430FE083
:103B5000FB68581E7B6859680B469B000B44990014
:103B60000B44B0FBF3F30133C3F30B0343F44043C3
:103B7000796809681343CB617B681B681B6823F075
:103B8000C0017B68DA697B681B6A1A437B681B6823
:103B90000A431A607B681B689B6823F4034323F085
:103BA000FF037A6811697A68D26811437A681268EB
:103BB0000B4393607B681B68DB6823F0FF017B6825
:103BC0005A697B689B691A437B681B680A43DA6001
:103BD0007B681B681A687B681B6842F001021A60E8
:103BE0007B6800221A647B68202283F83D207B6872
:103BF00000221A637B68002283F83E2000231846C7
:103C00001037BD4680BD00BFA08601007F841E0026
:103C1000FF083D0083DE1B43D34D621080B588B0A2
:103C200002AFF860084611461A4603467B810B46F0
:103C30003B811346FB80FFF705FA7861FB6893F838
:103C40003D30DBB2202B40F0D9807B6900931923F3
:103C500001226D49F86800F0BBFC0346002B01D03F
:103C60000223CCE0FB6893F83C30012B01D1022306
:103C7000C5E0FB68012283F83C20FB681B681B68D9
:103C800003F00103012B07D0FB681B681A68FB686F
:103C90001B6842F001021A60FB681B681A68FB6827
:103CA0001B6822F400621A60FB68212283F83D2021
:103CB000FB68402283F83E20FB6800221A64FB6800
:103CC0003A6A5A62FB68BA8C5A85FB685B8D9AB275
:103CD000FB681A85FB684D4ADA62F8883A89798967
:103CE0007B690193BB6A00930346F86800F0F2FA1F
:103CF0000346002B52D0012381E07A69B96AF86843
:103D000000F03CFD0346002B0DD0FB681B6C042B20
:103D100007D1FB681B681A68FB681B6842F40072D5
:103D20001A6001236BE0FB685B6A1A78FB681B680A
:103D30001A61FB685B6A5A1CFB685A62FB681B8D40
:103D4000013B9AB2FB681A85FB685B8D9BB2013B15
:103D50009AB2FB685A85FB681B685B6903F0040331
:103D6000042B1BD1FB681B8D002B17D0FB685B6AF3
:103D70001A78FB681B681A61FB685B6A5A1CFB684F
:103D80005A62FB681B8D013B9AB2FB681A85FB687F
:103D90005B8D9BB2013B9AB2FB685A85FB681B8D19
:103DA000002BAAD17A69B96AF86800F028FD0346A9
:103DB000002B0DD0FB681B6C042B07D1FB681B6824
:103DC0001A68FB681B6842F400721A60012316E04F
:103DD000FB681B681A68FB681B6842F400721A6073
:103DE000FB68202283F83D20FB68002283F83E20F8
:103DF000FB68002283F83C20002300E002231846E1
:103E00001837BD4680BD00BF020010000000FFFF54
:103E100080B58CB002AFF860084611461A460346DA
:103E20007B810B463B811346FB8000233B62FFF7FF
:103E300009F97862FB6893F83D30DBB2202B40F043
:103E40003D827B6A0093192301228149F86800F0C2
:103E5000BFFB0346002B01D0022330E2FB6893F83E
:103E60003C30012B01D1022329E2FB68012283F8B7
:103E70003C20FB681B681B6803F00103012B07D083
:103E8000FB681B681A68FB681B6842F001021A6035
:103E9000FB681B681A68FB681B6822F400621A60E2
:103EA000FB68222283F83D20FB68402283F83E20F5
:103EB000FB6800221A64FB683A6B5A62FB68BA8E90
:103EC0005A85FB685B8D9AB2FB681A85FB68614A6C
:103ED000DA62F8883A8979897B6A0193BB6B00932F
:103EE0000346F86800F08CFA0346002B01D001234A
:103EF000E5E1FB681B8D002B13D10023FB61FB6800
:103F00001B685B69FB61FB681B689B69FB61FB6964
:103F1000FB681B681A68FB681B6842F400721A6031
:103F2000B9E1FB681B8D012B1DD1FB681B681A686A
:103F3000FB681B6822F480621A6072B60023BB61C2
:103F4000FB681B685B69BB61FB681B689B69BB61A5
:103F5000BB69FB681B681A68FB681B6842F4007247
:103F60001A6062B697E1FB681B8D022B1DD1FB68BE
:103F70001B681A68FB681B6842F400621A6072B61C
:103F800000237B61FB681B685B697B61FB681B68C6
:103F90009B697B617B69FB681B681A68FB681B680F
:103FA00022F480621A6062B675E1FB681B681A68C9
:103FB000FB681B6842F480621A6000233B61FB6867
:103FC0001B685B693B61FB681B689B693B613B69E4
:103FD00061E1FB681B8D032B00F21A81FB681B8DCE
:103FE000012B23D17A6AB96BF86800F049FC0346CB
:103FF000002B01D0012362E1FB681B681A69FB6892
:104000005B6AD2B21A70FB685B6A5A1CFB685A6220
:10401000FB681B8D013B9AB2FB681A85FB685B8DC0
:104020009BB2013B9AB2FB685A8534E1FB681B8D59
:10403000022B50D17B6A0093BB6B00220649F868C3
:1040400000F0C6FA0346002B08D0012337E100BF79
:10405000020010000000FFFF0400010072B6FB68C0
:104060001B681A68FB681B6842F400721A60FB68E0
:104070001B681A69FB685B6AD2B21A70FB685B6ADC
:104080005A1CFB685A62FB681B8D013B9AB2FB68A5
:104090001A85FB685B8D9BB2013B9AB2FB685A851F
:1040A00062B6FB681B681A69FB685B6AD2B21A7059
:1040B000FB685B6A5A1CFB685A62FB681B8D013BFC
:1040C0009AB2FB681A85FB685B8D9BB2013B9AB282
:1040D000FB685A85DFE07B6A0093BB6B00227A495C
:1040E000F86800F075FA0346002B01D00123E6E0E2
:1040F000FB681B681A68FB681B6822F480621A6000
:1041000072B6FB681B681A69FB685B6AD2B21A70E8
:10411000FB685B6A5A1CFB685A62FB681B8D013B9B
:104120009AB2FB681A85FB685B8D9BB2013B9AB221
:10413000FB685A85654B1B68DB08654AA2FB0323B5
:104140001A0A13469B001344DA00D31A3B623B6AF7
:10415000013B3B623B6A002B17D1FB6800221A63CC
:10416000FB68202283F83D20FB68002283F83E2074
:10417000FB681B6C43F02002FB681A6462B6FB68A4
:10418000002283F83C20012399E0FB681B685B69EF
:1041900003F00403042BDAD1FB681B681A68FB6880
:1041A0001B6842F400721A60FB681B681A69FB689E
:1041B0005B6AD2B21A70FB685B6A5A1CFB685A626F
:1041C000FB681B8D013B9AB2FB681A85FB685B8D0F
:1041D0009BB2013B9AB2FB685A8562B6FB681B68CA
:1041E0001A69FB685B6AD2B21A70FB685B6A5A1C78
:1041F000FB685A62FB681B8D013B9AB2FB681A850B
:10420000FB685B8D9BB2013B9AB2FB685A8542E02A
:104210007A6AB96BF86800F033FB0346002B01D0D3
:1042200001234CE0FB681B681A69FB685B6AD2B229
:104230001A70FB685B6A5A1CFB685A62FB681B8D2C
:10424000013B9AB2FB681A85FB685B8D9BB2013B10
:104250009AB2FB685A85FB681B685B6903F004032C
:10426000042B18D1FB681B681A69FB685B6AD2B221
:104270001A70FB685B6A5A1CFB685A62FB681B8DEC
:10428000013B9AB2FB681A85FB685B8D9BB2013BD0
:104290009AB2FB685A85FB681B8D002B7FF499AEA0
:1042A000FB68202283F83D20FB68002283F83E2033
:1042B000FB68002283F83C20002300E0022318461C
:1042C0002837BD4680BD00BF04000100B4000020B7
:1042D00089B5F81480B588B002AFF8600846114679
:1042E0001A4603467B810B463B811346FB80FB68E5
:1042F0001B681A68FB681B6842F480721A607B6A4C
:1043000000933B6A00224FF00111F86800F060F959
:104310000346002B0DD0FB681B681B6803F48073F9
:10432000B3F5807F03D1FB684FF400721A64032356
:104330005FE07B89DBB21A46FB681B6802F0FE0275
:104340001A617B6A3A6A2D49F86800F098F90346C9
:10435000002B01D001234CE000237B61FB681B682C
:104360005B697B61FB681B689B697B617B697A6A1F
:10437000396AF86800F002FA0346002B0DD0FB689A
:104380001B6C042B07D1FB681B681A68FB681B6851
:1043900042F400721A6001232BE0FB88012B05D147
:1043A0003B89DAB2FB681B681A6121E03B891B0A72
:1043B0009BB2DAB2FB681B681A617A6A396AF868DC
:1043C00000F0DCF90346002B0DD0FB681B6C042BBE
:1043D00007D1FB681B681A68FB681B6842F400720F
:1043E0001A60012305E03B89DAB2FB681B681A6199
:1043F000002318461837BD4680BD00BF02000100EB
:1044000080B588B002AFF860084611461A460346E8
:104410007B810B463B811346FB80FB681B681A6857
:10442000FB681B6842F480621A60FB681B681A68AC
:10443000FB681B6842F480721A607B6A00933B6AD7
:1044400000224FF00111F86800F0C2F80346002B7B
:104450000DD0FB681B681B6803F48073B3F5807F85
:1044600003D1FB684FF400721A640323AAE07B892E
:10447000DBB21A46FB681B6802F0FE021A617B6A17
:104480003A6A5249F86800F0FAF80346002B01D066
:10449000012397E000237B61FB681B685B697B61FC
:1044A000FB681B689B697B617B697A6A396AF8687B
:1044B00000F064F90346002B0DD0FB681B6C042B45
:1044C00007D1FB681B681A68FB681B6842F400721E
:1044D0001A60012376E0FB88012B05D13B89DAB213
:1044E000FB681B681A6121E03B891B0A9BB2DAB2A8
:1044F000FB681B681A617A6A396AF86800F03EF94D
:104500000346002B0DD0FB681B6C042B07D1FB6806
:104510001B681A68FB681B6842F400721A6001236A
:1045200050E03B89DAB2FB681B681A617A6A396A23
:10453000F86800F023F90346002B0DD0FB681B6CD4
:10454000042B07D1FB681B681A68FB681B6842F4E0
:1045500000721A60012335E0FB681B681A68FB686B
:104560001B6842F480721A607B6A00933B6A0022E7
:104570004FF00111F86800F02BF80346002B0DD026
:10458000FB681B681B6803F48073B3F5807F03D15D
:10459000FB684FF400721A64032313E07B89DBB2DB
:1045A00043F00103DAB2FB681B681A617B6A3A6A5E
:1045B0000649F86800F063F80346002B01D0012398
:1045C00000E0002318461837BD4680BD02000100F8
:1045D00080B584B000AFF860B9603B601346FB71F2
:1045E00025E03B68B3F1FF3F21D0FEF72BFD0246EB
:1045F000BB69D31A3A689A4202D33B68002B16D1A2
:10460000FB6800221A63FB68202283F83D20FB68C8
:10461000002283F83E20FB681B6C43F02002FB68FD
:104620001A64FB68002283F83C20012323E0BB6866
:104630001B0CDBB2012B0DD1FB681B685B69DA43F5
:10464000BB6813409BB2002B0CBF01230023DBB2DD
:104650001A460CE0FB681B689B69DA43BB68134091
:104660009BB2002B0CBF01230023DBB21A46FB795F
:104670009A42B6D0002318461037BD4680BD80B59B
:1046800084B000AFF860B9607A603B6051E0FB68CD
:104690001B685B6903F48063B3F5806F23D1FB680B
:1046A0001B681A68FB681B6842F400721A60FB689A
:1046B0001B686FF480625A61FB6800221A63FB6812
:1046C000202283F83D20FB68002283F83E20FB680F
:1046D0001B6C43F00402FB681A64FB68002283F839
:1046E0003C20012346E07B68B3F1FF3F21D0FEF779
:1046F000A9FC02463B68D31A7A689A4202D37B68C7
:10470000002B16D1FB6800221A63FB68202283F875
:104710003D20FB68002283F83E20FB681B6C43F0C1
:104720002002FB681A64FB68002283F83C20012306
:1047300020E0BB681B0CDBB2012B0CD1FB681B68B3
:104740005B69DA43BB6813409BB2002B14BF0123A3
:104750000023DBB20BE0FB681B689B69DA43BB6894
:1047600013409BB2002B14BF01230023DBB2002BAC
:104770008DD1002318461037BD4680BD80B584B06A
:1047800000AFF860B9607A602DE0F86800F0CEF80C
:104790000346002B01D001232DE0BB68B3F1FF3F9E
:1047A00021D0FEF74FFC02467B68D31ABA689A42C2
:1047B00002D3BB68002B16D1FB6800221A63FB688A
:1047C000202283F83D20FB68002283F83E20FB680E
:1047D0001B6C43F02002FB681A64FB68002283F81C
:1047E0003C20012307E0FB681B685B6903F0800342
:1047F000802BCAD1002318461037BD4680BD80B536
:1048000084B000AFF860B9607A602DE0F86800F01D
:104810008DF80346002B01D001232DE0BB68B3F1D6
:10482000FF3F21D0FEF70EFC02467B68D31ABA6820
:104830009A4202D3BB68002B16D1FB6800221A6390
:10484000FB68202283F83D20FB68002283F83E208D
:10485000FB681B6C43F02002FB681A64FB680022B3
:1048600083F83C20012307E0FB681B685B6903F0C9
:104870000403042BCAD1002318461037BD4680BD5F
:1048800080B584B000AFF860B9607A6042E0FB6840
:104890001B685B6903F01003102B19D1FB681B68C0
:1048A0006FF010025A61FB6800221A63FB68202235
:1048B00083F83D20FB68002283F83E20FB681A6CD9
:1048C000FB681A64FB68002283F83C20012329E07E
:1048D000FEF7B8FB02467B68D31ABA689A4202D345
:1048E000BB68002B16D1FB6800221A63FB682022EC
:1048F00083F83D20FB68002283F83E20FB681B6C98
:1049000043F02002FB681A64FB68002283F83C2015
:10491000012307E0FB681B685B6903F04003402B41
:10492000B5D1002318461037BD4680BD80B483B092
:1049300000AF78607B681B685B6903F48063B3F544
:10494000806F1BD17B681B686FF480625A617B6843
:1049500000221A637B68202283F83D207B680022B6
:1049600083F83E207B681B6C43F004027B681A646A
:104970007B68002283F83C20012300E000231846D6
:104980000C37BD4680BC704780B586B000AF7860FC
:104990007B68002B01D101236CE27B681B6803F06C
:1049A0000103002B00F08780924B5B6803F00C033F
:1049B000042B0CD08F4B5B6803F00C03082B12D137
:1049C0008C4B5B6803F48033B3F5803F0BD1894B8C
:1049D0001B6803F40033002B6CD07B685B68002BF2
:1049E00068D1012346E27B685B68B3F5803F06D15E
:1049F000804B1B687F4A43F4803313602EE07B6852
:104A00005B68002B0CD17B4B1B687A4A23F4803304
:104A10001360784B1B68774A23F4802313601DE0F2
:104A20007B685B68B3F5A02F0CD1724B1B68714A91
:104A300043F4802313606F4B1B686E4A43F480334A
:104A400013600BE06B4B1B686A4A23F480331360DE
:104A5000684B1B68674A23F4802313607B685B689C
:104A6000002B13D0FEF7EEFA386108E0FEF7EAFA01
:104A700002463B69D31A642B01D90323FAE15D4B4B
:104A80001B6803F40033002BF0D014E0FEF7DAFAD1
:104A9000386108E0FEF7D6FA02463B69D31A642B68
:104AA00001D90323E6E1534B1B6803F40033002BC9
:104AB000F0D100E000BF7B681B6803F00203002B0D
:104AC00063D04C4B5B6803F00C03002B0BD0494BBD
:104AD0005B6803F00C03082B1CD1464B5B6803F4A6
:104AE0008033002B16D1434B1B6803F00203002BCD
:104AF00005D07B681B69012B01D00123BAE13D4B36
:104B00001B6823F0F8027B685B69DB0039491343BB
:104B10000B603AE07B681B69002B20D0364B0122EA
:104B20001A60FEF78FFA386108E0FEF78BFA02464A
:104B30003B69D31A022B01D903239BE12D4B1B6840
:104B400003F00203002BF0D02A4B1B6823F0F8027D
:104B50007B685B69DB00274913430B6015E0264B3C
:104B600000221A60FEF76EFA386108E0FEF76AFA72
:104B700002463B69D31A022B01D903237AE11D4B6C
:104B80001B6803F00203002BF0D17B681B6803F065
:104B90000803002B3AD07B689B69002B19D0174B78
:104BA00001221A60FEF74EFA386108E0FEF74AFA71
:104BB00002463B69D31A022B01D903235AE10D4B5C
:104BC0005B6A03F00203002BF0D0012000F0DAFA58
:104BD0001CE00A4B00221A60FEF734FA38610FE03D
:104BE000FEF730FA02463B69D31A022B08D9032399
:104BF00040E100BF001002400000424280044242F7
:104C00009E4B5B6A03F00203002BE9D17B681B68B3
:104C100003F00403002B00F0A6800023FB75974BE4
:104C2000DB6903F08053002B0DD1944BDB69934A71
:104C300043F08053D361914BDB6903F08053BB6039
:104C4000BB680123FB758E4B1B6803F48073002B3C
:104C500018D18B4B1B688A4A43F480731360FEF7AC
:104C6000F1F9386108E0FEF7EDF902463B69D31A25
:104C7000642B01D90323FDE0814B1B6803F480738F
:104C8000002BF0D07B68DB68012B06D17B4B1B6AC5
:104C90007A4A43F0010313622DE07B68DB68002B46
:104CA0000CD1764B1B6A754A23F001031362734BD8
:104CB0001B6A724A23F0040313621CE07B68DB6802
:104CC000052B0CD16D4B1B6A6C4A43F00403136235
:104CD0006A4B1B6A694A43F0010313620BE0674B9E
:104CE0001B6A664A23F001031362644B1B6A634A22
:104CF00023F0040313627B68DB68002B15D0FEF7FA
:104D0000A1F938610AE0FEF79DF902463B69D31A22
:104D100041F28832934201D90323ABE0574B1B6A1F
:104D200003F00203002BEED014E0FEF78BF938619C
:104D30000AE0FEF787F902463B69D31A41F288324E
:104D4000934201D9032395E04C4B1B6A03F0020305
:104D5000002BEED1FB7D012B05D1484BDB69474A87
:104D600023F08053D3617B68DB69002B00F08180E6
:104D7000424B5B6803F00C03082B61D07B68DB6956
:104D8000022B46D13F4B00221A60FEF75BF93861D7
:104D900008E0FEF757F902463B69D31A022B01D906
:104DA000032367E0354B1B6803F00073002BF0D141
:104DB0007B681B6AB3F5803F08D1304B5B6823F4F6
:104DC00000327B689B682D4913434B602B4B5B681B
:104DD00023F474127B68196A7B685B6A0B4327496A
:104DE00013434B60274B01221A60FEF72BF9386101
:104DF00008E0FEF727F902463B69D31A022B01D9D6
:104E0000032337E01D4B1B6803F00073002BF0D029
:104E10002FE01C4B00221A60FEF714F9386108E0FD
:104E2000FEF710F902463B69D31A022B01D903237E
:104E300020E0124B1B6803F00073002BF0D118E048
:104E40007B68DB69012B01D1012313E00B4B5B680D
:104E5000FB60FB6803F480327B681B6A9A4206D1D0
:104E6000FB6803F470127B685B6A9A4201D00123ED
:104E700000E0002318461837BD4680BD00100240F0
:104E8000007000406000424280B584B000AF78609E
:104E900039607B68002B01D10123D0E06A4B1B688D
:104EA00003F007033A689A4210D9674B1B6823F056
:104EB000070265493B6813430B60634B1B6803F0B3
:104EC00007033A689A4201D00123B8E07B681B6867
:104ED00003F00203002B20D07B681B6803F004035F
:104EE000002B05D0594B5B68584A43F4E06353608C
:104EF0007B681B6803F00803002B05D0534B5B68ED
:104F0000524A43F460535360504B5B6823F0F00205
:104F10007B689B684D4913434B607B681B6803F0BB
:104F20000103002B40D07B685B68012B07D1474B06
:104F30001B6803F40033002B15D101237FE07B684D
:104F40005B68022B07D1414B1B6803F00073002BF9
:104F500009D1012373E03D4B1B6803F00203002BD2
:104F600001D101236BE0394B5B6823F003027B68BE
:104F70005B68364913434B60FEF764F8F8600AE05B
:104F8000FEF760F80246FB68D31A41F2883293427A
:104F900001D9032353E02D4B5B6803F00C027B68BF
:104FA0005B689B009A42EBD1274B1B6803F0070319
:104FB0003A689A4210D2244B1B6823F00702224918
:104FC0003B6813430B60204B1B6803F007033A68F0
:104FD0009A4201D0012332E07B681B6803F004038E
:104FE000002B08D0194B5B6823F4E0627B68DB6818
:104FF000164913434B607B681B6803F00803002BC2
:1050000009D0124B5B6823F460527B681B69DB009C
:105010000E4913434B6000F021F801460B4B5B68CF
:105020001B0903F00F030A4AD35C21FA03F3094A70
:105030001360094B1B681846FDF7C2FF0023184692
:105040001037BD4680BD00BF002002400010024066
:10505000DC690008B4000020B800002090B48AB0D9
:1050600000AF2A4B3C1D0FCB84E80F00284B1B8858
:105070003B800023FB610023BB6100237B62002394
:105080007B6100233B62234B5B68FB61FB6903F0A0
:105090000C03042B02D0082B03D02DE01E4B3B62E7
:1050A0002DE0FB699B0C03F00F0307F1280213446A
:1050B00013F8243C7B61FB6903F48033002B13D08D
:1050C000144B5B685B0C03F0010307F128021344E7
:1050D00013F8283CBB617B690F4A02FB03F2BB69F2
:1050E000B2FBF3F37B6204E07B690C4A02FB03F33F
:1050F0007B627B6A3B6202E0074B3B6200BF3B6A1C
:1051000018462837BD4690BC704700BFC8690008E4
:10511000D86900080010024000127A0000093D0022
:1051200080B400AF024B1B681846BD4680BC704778
:10513000B400002080B500AFFFF7F2FF0146054B39
:105140005B681B0A03F00703034AD35C21FA03F3ED
:10515000184680BD00100240EC69000880B500AF21
:10516000FFF7DEFF0146054B5B68DB0A03F0070330
:10517000034AD35C21FA03F3184680BD00100240B5
:10518000EC69000880B485B000AF78600A4B1B68FA
:105190000A4AA2FB03235B0A7A6802FB03F3FB6063
:1051A00000BFFB685A1EFA60002BF9D100BF14370C
:1051B000BD4680BC704700BFB4000020D34D6210D4
:1051C00080B582B000AF78607B68002B01D10123ED
:1051D00041E07B6893F83D30DBB2002B06D17B6861
:1051E000002283F83C207868FDF7FAFC7B680222F5
:1051F00083F83D207B681A687B68043319461046A3
:1052000000F06CFA7B68012283F846207B6801225B
:1052100083F83E207B68012283F83F207B680122CF
:1052200083F840207B68012283F841207B680122BB
:1052300083F842207B68012283F843207B680122A7
:1052400083F844207B68012283F845207B68012293
:1052500083F83D20002318460837BD4680BD000076
:1052600080B485B000AF78607B6893F83D30DBB2E6
:10527000012B01D001233AE07B68022283F83D2014
:105280007B681B68DA687B681B6842F00102DA60A1
:105290007B681B68184A93420ED07B681B68B3F189
:1052A000804F09D07B681B68144A934204D07B6806
:1052B0001B68134A934211D17B681B689B6803F0FB
:1052C0000703FB60FB68062B10D07B681B681A681D
:1052D0007B681B6842F001021A6007E07B681B686C
:1052E0001A687B681B6842F001021A6000231846A6
:1052F0001437BD4680BC7047002C014000040040BC
:105300000008004080B582B000AF78607B681B6801
:105310001B6903F00203022B22D17B681B68DB6848
:1053200003F00203022B1BD17B681B686FF00202A3
:105330001A617B6801221A777B681B689B6903F0FE
:105340000303002B03D0786800F0ADF905E078681E
:1053500000F0A0F9786800F0AFF97B6800221A77B6
:105360007B681B681B6903F00403042B22D17B6854
:105370001B68DB6803F00403042B1BD17B681B68EC
:105380006FF004021A617B6802221A777B681B683F
:105390009B6903F44073002B03D0786800F083F915
:1053A00005E0786800F076F9786800F085F97B68A8
:1053B00000221A777B681B681B6903F00803082B1F
:1053C00022D17B681B68DB6803F00803082B1BD124
:1053D0007B681B686FF008021A617B6804221A77E9
:1053E0007B681B68DB6903F00303002B03D078683C
:1053F00000F059F905E0786800F04CF9786800F0A1
:105400005BF97B6800221A777B681B681B6903F0D5
:105410001003102B22D17B681B68DB6803F010039C
:10542000102B1BD17B681B686FF010021A617B6820
:1054300008221A777B681B68DB6903F44073002B32
:1054400003D0786800F02FF905E0786800F022F9C1
:10545000786800F031F97B6800221A777B681B6856
:105460001B6903F00103012B0ED17B681B68DB680D
:1054700003F00103012B07D17B681B686FF0010269
:105480001A61786800F0FDF87B681B681B6903F0FF
:105490008003802B0ED17B681B68DB6803F08003E0
:1054A000802B07D17B681B686FF080021A617868D7
:1054B00000F073FA7B681B681B6903F04003402B04
:1054C0000ED17B681B68DB6803F04003402B07D1DB
:1054D0007B681B686FF040021A61786800F0F5F88D
:1054E0007B681B681B6903F02003202B0ED17B68AF
:1054F0001B68DB6803F02003202B07D17B681B6847
:105500006FF020021A61786800F03EFA00BF083799
:10551000BD4680BD80B584B000AF786039607B68DF
:1055200093F83C30012B01D10223A6E07B680122D5
:1055300083F83C207B68022283F83D207B681B684F
:105540009B68FB60FB6823F07703FB60FB6823F438
:105550007F43FB607B681B68FA689A603B681B6846
:10556000402B67D0402B0BD8102B73D0102B02D8B8
:10557000002B6FD078E0202B6CD0302B6AD073E0FA
:10558000702B0DD0702B04D8502B33D0602B41D012
:105590006AE0B3F5805F66D0B3F5005F17D063E0D3
:1055A0007B6818683B6899683B685A683B68DB68A9
:1055B00000F06DF97B681B689B68FB60FB6843F03B
:1055C0007703FB607B681B68FA689A604CE07B6835
:1055D00018683B6899683B685A683B68DB6800F06C
:1055E00056F97B681B689A687B681B6842F48042A6
:1055F0009A6039E07B6818683B6859683B68DB68EB
:105600001A4600F0CDF87B681B685021184600F060
:1056100024F929E07B6818683B6859683B68DB68B7
:105620001A4600F0EBF87B681B686021184600F012
:1056300014F919E07B6818683B6859683B68DB68B7
:105640001A4600F0ADF87B681B684021184600F050
:1056500004F909E07B681A683B681B681946104624
:1056600000F0FBF800E000BF7B68012283F83D20DA
:105670007B68002283F83C20002318461037BD4683
:1056800080BD80B483B000AF786000BF0C37BD46EA
:1056900080BC704780B483B000AF786000BF0C3727
:1056A000BD4680BC704780B483B000AF786000BF57
:1056B0000C37BD4680BC704780B483B000AF7860C3
:1056C00000BF0C37BD4680BC704780B483B000AFCC
:1056D000786000BF0C37BD4680BC704780B485B091
:1056E00000AF786039607B681B68FB607B68294A83
:1056F00093420BD07B68B3F1804F07D07B68264A7A
:10570000934203D07B68254A934208D1FB6823F07B
:105710007003FB603B685B68FA681343FB607B685F
:105720001C4A93420BD07B68B3F1804F07D07B6853
:10573000194A934203D07B68184A934208D1FB6808
:1057400023F44073FB603B68DB68FA681343FB603B
:10575000FB6823F080023B685B691343FB607B6856
:10576000FA681A603B689A687B68DA623B681A6874
:105770007B689A627B68074A934203D13B681A6947
:105780007B681A637B6801225A6100BF1437BD46EB
:1057900080BC7047002C014000040040000800401D
:1057A00080B487B000AFF860B9607A60FB681B6AAC
:1057B0007B61FB681B6A23F00102FB681A62FB68CD
:1057C0009B693B613B6923F0F0033B617B681B01F4
:1057D0003A6913433B617B6923F00A037B617A6971
:1057E000BB6813437B61FB683A699A61FB687A691D
:1057F0001A6200BF1C37BD4680BC704780B487B0BA
:1058000000AFF860B9607A60FB681B6A23F0100291
:10581000FB681A62FB689B697B61FB681B6A3B61E2
:105820007B6923F470437B617B681B037A691343B4
:105830007B613B6923F0A0033B61BB681B013A69B4
:1058400013433B61FB687A699A61FB683A691A62A3
:1058500000BF1C37BD4680BC704780B485B000AF28
:10586000786039607B689B68FB60FB6823F070039D
:10587000FB603A68FB68134343F00703FB607B68F7
:10588000FA689A6000BF1437BD4680BC704780B488
:1058900087B000AFF860B9607A603B60FB689B68D6
:1058A0007B617B6923F47F437B613B681A027B68E1
:1058B0001A43BB6813437A6913437B61FB687A69B7
:1058C0009A6000BF1C37BD4680BC704780B485B06D
:1058D00000AF786039607B6893F83C30012B01D1D0
:1058E000022346E07B68012283F83C207B68022289
:1058F00083F83D207B681B685B68FB607B681B68E6
:105900009B68BB60FB6823F07003FB603B681B680F
:10591000FA681343FB607B681B68FA685A607B680F
:105920001B68164A93420ED07B681B68B3F1804F08
:1059300009D07B681B68124A934204D07B681B68BD
:10594000104A93420CD1BB6823F08003BB603B68D4
:105950005B68BA681343BB607B681B68BA689A606F
:105960007B68012283F83D207B68002283F83C207D
:10597000002318461437BD4680BC7047002C0140F8
:10598000000400400008004080B483B000AF78609D
:1059900000BF0C37BD4680BC704780B483B000AFF9
:1059A000786000BF0C37BD4680BC704780B582B0C0
:1059B00000AF78607B68002B01D101233FE07B685A
:1059C00093F83D30DBB2002B06D17B68002283F8D0
:1059D0003C207868FDF760F97B68242283F83D203D
:1059E0007B681B68DA687B681B6822F40052DA6007
:1059F000786800F0ABFB7B681B681A697B681B68E2
:105A000022F490421A617B681B685A697B681B68A4
:105A100022F02A025A617B681B68DA687B681B687F
:105A200042F40052DA607B6800221A647B6820220C
:105A300083F83D207B68202283F83E20002318460F
:105A40000837BD4680BD80B584B000AFF860B9604E
:105A50001346FB80FB6893F83E30DBB2202B1DD150
:105A6000BB68002B02D0FB88002B01D1012316E07C
:105A7000FB6893F83C30012B01D102230FE0FB6857
:105A8000012283F83C20FB6800221A63FB881A4637
:105A9000B968F86800F0D1F9034600E0022318461F
:105AA0001037BD4680BD000080B58AB000AF786079
:105AB0007B681B681B687B627B681B68DB683B62DA
:105AC0007B681B685B69FB610023BB6100237B6112
:105AD0007B6A03F00F03BB61BB69002B0DD17B6AAE
