:020000040800F2
:1000000000500020DD2900087D2800088328000812
:10001000892800088F2800089528000800000000A3
:100020000000000000000000000000009B28000805
:10003000A728000800000000B3280008BF28000817
:10004000252A0008252A0008252A0008252A000854
:10005000252A0008252A0008252A0008252A000844
:10006000252A0008252A0008252A0008252A000834
:10007000252A0008252A0008252A0008252A000824
:10008000252A0008252A0008252A0008252A000814
:10009000252A0008252A0008252A0008252A000804
:1000A000252A0008CD280008252A0008252A00084E
:1000B00045290008BD290008252A0008252A00082E
:1000C000252A0008252A0008252A0008252A0008D4
:1000D000252A0008252A0008252A0008252A0008C4
:1000E000252A0008252A0008252A0008000000000B
:1000F0000000000000000000000000000000000000
:0C01000000000000000000005FF808F1A3
:1001100010B5054C237833B9044B13B10448AFF341
:1001200000800123237010BD280100200000000082
:100130000857000808B5034B1BB103490348AFF348
:10014000008008BD000000002C01002008570008B6
:1001500081F0004102E000BF83F0004330B54FEA78
:1001600041044FEA430594EA050F08BF90EA020FE5
:100170001FBF54EA000C55EA020C7FEA645C7FEA78
:10018000655C00F0E2804FEA5454D4EB5555B8BF9B
:100190006D420CDD2C4480EA020281EA030382EA0C
:1001A000000083EA010180EA020281EA0303362D9E
:1001B00088BF30BD11F0004F4FEA01314FF4801C71
:1001C0004CEA113102D0404261EB410113F0004F83
:1001D0004FEA03334CEA133302D0524263EB43033A
:1001E00094EA050F00F0A780A4F10104D5F1200ED8
:1001F0000DDB02FA0EFC22FA05F2801841F1000133
:1002000003FA0EF2801843FA05F359410EE0A5F106
:1002100020050EF1200E012A03FA0EFC28BF4CF037
:10022000020C43FA05F3C01851EBE37101F00045ED
:1002300007D54FF0000EDCF1000C7EEB00006EEBFA
:100240000101B1F5801F1BD3B1F5001F0CD3490884
:100250005FEA30004FEA3C0C04F101044FEA4452DB
:1002600012F5800F80F09A80BCF1004F08BF5FEA62
:10027000500C50F1000041EB045141EA050130BD42
:100280005FEA4C0C404141EB010111F4801FA4F1E5
:100290000104E9D191F0000F04BF01460020B1FA3A
:1002A00081F308BF2033A3F10B03B3F120020CDA72
:1002B0000C3208DD02F1140CC2F10C0201FA0CF050
:1002C00021FA02F10CE002F11402D8BFC2F1200CB5
:1002D00001FA02F120FA0CFCDCBF41EA0C0190406B
:1002E000E41AA2BF01EB0451294330BD6FEA0404B4
:1002F0001F3C1CDA0C340EDC04F11404C4F120029F
:1003000020FA04F001FA02F340EA030021FA04F3B0
:1003100045EA030130BDC4F10C04C4F1200220FA07
:1003200002F001FA04F340EA0300294630BD21FA45
:1003300004F0294630BD94F0000F83F4801306BF0B
:1003400081F480110134013D4EE77FEA645C18BFFF
:100350007FEA655C29D094EA050F08BF90EA020F96
:1003600005D054EA000C04BF1946104630BD91EA8E
:10037000030F1EBF0021002030BD5FEA545C05D191
:100380004000494128BF41F0004130BD14F58004D0
:100390003CBF01F5801130BD01F0004545F0FE4144
:1003A00041F470014FF0000030BD7FEA645C1ABF79
:1003B000194610467FEA655C1CBF0B46024650EAB0
:1003C000013406BF52EA033591EA030F41F40021DC
:1003D00030BD00BF90F0000F04BF0021704730B562
:1003E0004FF4806404F132044FF000054FF0000137
:1003F00050E700BF90F0000F04BF0021704730B5F8
:100400004FF4806404F1320410F0004548BF4042CC
:100410004FF000013EE700BF42004FEAE2014FEA21
:1004200031014FEA02701FBF12F07F4393F07F4FFC
:1004300081F06051704732F07F4208BF704793F0FF
:100440007F4F04BF41F40021704730B54FF4607412
:1004500001F0004521F000411CE700BF50EA010215
:1004600008BF704730B54FF000050AE050EA0102BE
:1004700008BF704730B511F0004502D5404261EB2E
:1004800041014FF4806404F132045FEA915C3FF46F
:10049000D8AE4FF003025FEADC0C18BF03325FEA0C
:1004A000DC0C18BF033202EBDC02C2F1200300FABD
:1004B00003FC20FA02F001FA03FE40EA0E0021FAE2
:1004C00002F11444BDE600BF70B54FF0FF0C4CF4D0
:1004D000E06C1CEA11541DBF1CEA135594EA0C0F82
:1004E00095EA0C0F00F0DEF82C4481EA030621EABD
:1004F0004C5123EA4C5350EA013518BF52EA0335F8
:1005000041F4801143F4801338D0A0FB02CE4FF0A9
:100510000005E1FB02E506F00042E0FB03E54FF0D9
:100520000006E1FB03569CF0000F18BF4EF0010ED1
:10053000A4F1FF04B6F5007F64F5407404D25FEACD
:100540004E0E6D4146EB060642EAC62141EA555180
:100550004FEAC52040EA5E504FEACE2EB4F1FD0CC2
:1005600088BFBCF5E06F1ED8BEF1004F08BF5FEA40
:10057000500E50F1000041EB045170BD06F00046F2
:1005800046EA010140EA020081EA0301B4EB5C049F
:10059000C2BFD4EB0C0541EA045170BD41F4801197
:1005A0004FF0000E013C00F3AB8014F1360FDEBFBC
:1005B000002001F0004170BDC4F10004203C35DA98
:1005C0000C341BDC04F11404C4F1200500FA05F31B
:1005D00020FA04F001FA05F240EA020001F00042BC
:1005E00021F0004110EBD37021FA04F642EB060132
:1005F0005EEA430E08BF20EAD37070BDC4F10C045C
:10060000C4F1200500FA04F320FA05F001FA04F21F
:1006100040EA020001F0004110EBD37041F100010B
:100620005EEA430E08BF20EAD37070BDC4F1200516
:1006300000FA05F24EEA020E20FA04F301FA05F27E
:1006400043EA020321FA04F001F0004121FA04F226
:1006500020EA020000EBD3705EEA430E08BF20EAF6
:10066000D37070BD94F0000F0FD101F00046400030
:1006700041EB010111F4801F08BF013CF7D041EAB2
:10068000060195F0000F18BF704703F000465200B6
:1006900043EB030313F4801F08BF013DF7D043EA87
:1006A0000603704794EA0C0F0CEA135518BF95EA3D
:1006B0000C0F0CD050EA410618BF52EA4306D1D1C4
:1006C00081EA030101F000414FF0000070BD50EAE3
:1006D000410606BF1046194652EA430619D094EA6D
:1006E0000C0F02D150EA013613D195EA0C0F05D157
:1006F00052EA03361CBF104619460AD181EA0301AB
:1007000001F0004141F0FE4141F470014FF0000062
:1007100070BD41F0FE4141F4780170BD70B54FF0FD
:10072000FF0C4CF4E06C1CEA11541DBF1CEA13557D
:1007300094EA0C0F95EA0C0F00F0A7F8A4EB05045F
:1007400081EA030E52EA03354FEA013100F0888056
:100750004FEA03334FF0805545EA131343EA12631F
:100760004FEA022245EA111545EA10654FEA0026D4
:100770000EF000419D4208BF964244F1FD0404F58D
:10078000407402D25B084FEA3202B61A65EB0305E9
:100790005B084FEA32024FF480104FF4002CB6EBA6
:1007A000020E75EB030E22BFB61A754640EA0C0026
:1007B0005B084FEA3202B6EB020E75EB030E22BF66
:1007C000B61A754640EA5C005B084FEA3202B6EBA7
:1007D000020E75EB030E22BFB61A754640EA9C0066
:1007E0005B084FEA3202B6EB020E75EB030E22BF36
:1007F000B61A754640EADC0055EA060E18D04FEAF4
:10080000051545EA16754FEA06164FEAC30343EA93
:1008100052734FEAC2025FEA1C1CC0D111F4801F60
:100820000BD141EA00014FF000004FF0004CB6E759
:1008300011F4801F04BF01430020B4F1FD0C88BFF8
:10084000BCF5E06F3FF6AFAEB5EB030C04BFB6EB03
:10085000020C5FEA500C50F1000041EB045170BDF6
:100860000EF0004E4EEA113114EB5C04C2BFD4EB23
:100870000C0541EA045170BD41F480114FF0000EA7
:10088000013C90E645EA060E8DE60CEA135594EA23
:100890000C0F08BF95EA0C0F3FF43BAF94EA0C0F26
:1008A0000AD150EA01347FF434AF95EA0C0F7FF49B
:1008B00025AF104619462CE795EA0C0F06D152EAEF
:1008C00003353FF4FDAE1046194622E750EA4106D3
:1008D00018BF52EA43067FF4C5AE50EA41047FF4E4
:1008E0000DAF52EA43057FF4EBAE12E74FF0FF3C49
:1008F00006E000BF4FF0010C02E000BF4FF0010C1A
:100900004DF804CD4FEA410C7FEA6C5C4FEA430C92
:1009100018BF7FEA6C5C1BD001B050EA410C0CBFE1
:1009200052EA430C91EA030F02BF90EA020F002043
:10093000704710F1000F91EA030F58BF994208BFAA
:1009400090422CBFD8176FEAE37040F00100704767
:100950004FEA410C7FEA6C5C02D150EA013C07D1BE
:100960004FEA430C7FEA6C5CD6D152EA033CD3D009
:100970005DF8040B704700BF8446104662468C4603
:100980001946634600E000BF01B5FFF7B7FF002836
:1009900048BF10F1000F01BD4DF808EDFFF7F4FF5F
:1009A0000CBF012000205DF808FB00BF4DF808EDEA
:1009B000FFF7EAFF34BF012000205DF808FB00BF0D
:1009C0004DF808EDFFF7E0FF94BF012000205DF82F
:1009D00008FB00BF4DF808EDFFF7CEFF94BF0120E4
:1009E00000205DF808FB00BF4DF808EDFFF7C4FFDD
:1009F00034BF012000205DF808FB00BF4FEA410C26
:100A00007FEA6C5C02D150EA013C0AD14FEA430C08
:100A10007FEA6C5C02D152EA033C02D14FF0000045
:100A200070474FF0010070474FEA410212F5001283
:100A300015D211D56FF47873B3EB625212D94FEA25
:100A4000C12343F0004343EA505311F0004F23FA0F
:100A500002F018BF404270474FF00000704750EA64
:100A6000013005D111F0004008BF6FF00040704721
:100A70004FF00000704700BF4FEA4102B2F1E0437F
:100A800024BFB3F5001CDCF1FE5C0DD901F0004C75
:100A90004FEAC0024CEA5070B2F1004F40EB8300C5
:100AA00008BF20F00100704711F0804F21D113F1F1
:100AB0003872BCBF01F00040704741F480114FEA2A
:100AC0005252C2F11802C2F1200C10FA0CF320FAB3
:100AD00002F018BF40F001004FEAC1234FEAD323D0
:100AE00003FA0CFC40EA0C0023FA02F34FEA43033A
:100AF000CCE77FEA625307D150EA01331EBF4FF0C3
:100B0000FE4040F44000704701F0004040F0FE40DD
:100B100040F40000704700BF80F0004002E000BFDA
:100B200081F0004142001FBF5FEA410392EA030FD8
:100B30007FEA226C7FEA236C6AD04FEA1262D2EB22
:100B40001363C1BFD218414048404140B8BF5B4227
:100B5000192B88BF704710F0004F40F4000020F0C0
:100B60007F4018BF404211F0004F41F4000121F0D6
:100B70007F4118BF494292EA030F3FD0A2F1010220
:100B800041FA03FC10EB0C00C3F1200301FA03F15E
:100B900000F0004302D5494260EB4000B0F5000F81
:100BA00013D3B0F1807F06D340084FEA310102F140
:100BB0000102FE2A51D2B1F1004F40EBC25008BFF2
:100BC00020F0010040EA03007047490040EB0000BC
:100BD00010F4000FA2F10102EDD1B0FA80FCACF1EB
:100BE000080CB2EB0C0200FA0CF0AABF00EBC250EA
:100BF00052421843BCBFD0401843704792F0000FD8
:100C000081F4000106BF80F400000132013BB5E72A
:100C10004FEA41037FEA226C18BF7FEA236C21D0A0
:100C200092EA030F04D092F0000F08BF0846704705
:100C300090EA010F1CBF0020704712F07F4F04D1D3
:100C4000400028BF40F00040704712F100723CBFE6
:100C500000F50000704700F0004343F0FE4040F410
:100C6000000070477FEA226216BF08467FEA2363CE
:100C70000146420206BF5FEA412390EA010F40F4B9
:100C8000800070474FF0000304E000BF10F0004305
:100C900048BF40425FEA000C08BF704743F09643EC
:100CA00001464FF000001CE050EA010208BF704707
:100CB0004FF000030AE000BF50EA010208BF70478E
:100CC00011F0004302D5404261EB41015FEA010CA3
:100CD00002BF84460146002043F0B64308BFA3F19B
:100CE0008053A3F50003BCFA8CF2083AA3EBC2537D
:100CF00010DB01FA02FC634400FA02FCC2F120029C
:100D0000BCF1004F20FA02F243EB020008BF20F0D2
:100D10000100704702F1200201FA02FCC2F1200238
:100D200050EA4C0021FA02F243EB020008BF20EA2D
:100D3000DC7070474FF0FF0C1CEAD0521EBF1CEA5B
:100D4000D15392EA0C0F93EA0C0F6FD01A4480EA49
:100D5000010C400218BF5FEA41211ED04FF0006332
:100D600043EA501043EA5111A0FB01310CF000405E
:100D7000B1F5000F3EBF490041EAD3715B0040EA84
:100D8000010062F17F02FD2A1DD8B3F1004F40EB54
:100D9000C25008BF20F00100704790F0000F0CF027
:100DA000004C08BF49024CEA502040EA51207F3AEB
:100DB000C2BFD2F1FF0340EAC250704740F40000C6
:100DC0004FF00003013A5DDC12F1190FDCBF00F0B7
:100DD00000407047C2F10002410021FA02F1C2F165
:100DE000200200FA02FC5FEA310040F1000053EA01
:100DF0004C0308BF20EADC70704792F0000F00F04F
:100E0000004C02BF400010F4000F013AF9D040EA54
:100E10000C0093F0000F01F0004C02BF490011F4E8
:100E2000000F013BF9D041EA0C018FE70CEAD153E6
:100E300092EA0C0F18BF93EA0C0F0AD030F0004C66
:100E400018BF31F0004CD8D180EA010000F000401A
:100E5000704790F0000F17BF90F0004F084691F0D8
:100E6000000F91F0004F14D092EA0C0F01D1420212
:100E70000FD193EA0C0F03D14B0218BF084608D1DB
:100E800080EA010000F0004040F0FE4040F4000025
:100E9000704740F0FE4040F4400070474FF0FF0CB8
:100EA0001CEAD0521EBF1CEAD15392EA0C0F93EAFF
:100EB0000C0F69D0A2EB030280EA010C49024FEA51
:100EC000402037D04FF0805343EA111143EA10130A
:100ED0000CF000408B4238BF5B0042F17D024FF4C2
:100EE000000C8B4224BF5B1A40EA0C00B3EB510F9D
:100EF00024BFA3EB510340EA5C00B3EB910F24BF86
:100F0000A3EB910340EA9C00B3EBD10F24BFA3EB0A
:100F1000D10340EADC001B0118BF5FEA1C1CE0D1D2
:100F2000FD2A3FF650AF8B4240EBC25008BF20F085
:100F3000010070470CF0004C4CEA50207F32C2BFD9
:100F4000D2F1FF0340EAC250704740F400004FF076
:100F50000003013A37E792F0000F00F0004C02BFA7
:100F6000400010F4000F013AF9D040EA0C0093F071
:100F7000000F01F0004C02BF490011F4000F013BCB
:100F8000F9D041EA0C0195E70CEAD15392EA0C0F33
:100F900008D142027FF47DAF93EA0C0F7FF470AF6B
:100FA000084676E793EA0C0F04D14B023FF44CAFAE
:100FB00008466EE730F0004C18BF31F0004CCAD143
:100FC00030F000427FF45CAF31F000437FF43CAF7F
:100FD0005FE700BF4FF0FF3C06E000BF4FF0010CA1
:100FE00002E000BF4FF0010C4DF804CD4FEA400283
:100FF0004FEA41037FEA226C18BF7FEA236C11D0CD
:1010000001B052EA530C18BF90EA010F58BFB2EB7F
:10101000030088BFC81738BF6FEAE17018BF40F0FF
:10102000010070477FEA226C02D15FEA402C05D1B3
:101030007FEA236CE4D15FEA412CE1D05DF8040B38
:10104000704700BF844608466146FFE70FB5FFF7CB
:10105000C9FF002848BF10F1000F0FBD4DF808ED83
:10106000FFF7F4FF0CBF012000205DF808FB00BF74
:101070004DF808EDFFF7EAFF34BF012000205DF8CE
:1010800008FB00BF4DF808EDFFF7E0FF94BF01201B
:1010900000205DF808FB00BF4DF808EDFFF7D2FF18
:1010A00094BF012000205DF808FB00BF4DF808ED5B
:1010B000FFF7C8FF34BF012000205DF808FB00BF28
:1010C0004FEA4002B2F1FE4F0FD34FF09E03B3EB55
:1010D00012620DD94FEA002343F0004310F0004F95
:1010E00023FA02F018BF404270474FF000007047EB
:1010F00012F1610F01D1420205D110F0004008BF8A
:101100006FF0004070474FF00000704780B588B026
:1011100004AF7860642302930123019307F10F0366
:10112000009301237522D021786802F091F9FB7BAE
:10113000682B3DD10023BB736423029301230193E9
:1011400007F10E03009301236B22D021786802F08F
:1011500085F80723BB73642302930123019307F1EE
:101160000E03009301231922D021786802F076F84B
:101170000023BB73642302930123019307F10E0341
:10118000009301231C22D021786802F067F8002325
:10119000BB73642302930123019307F10E030093B1
:1011A00001231B22D021786802F058F8002300E0C8
:1011B000012318461037BD4680BD00000000000026
:1011C0002DE9B04F94B004AF786039606423029386
:1011D0000E23019307F10803009301233B22D02142
:1011E000786802F035F93B7A1B021AB27B7A1BB29F
:1011F00013431AB23B681A80BB7A1B021AB2FB7AFD
:101200001BB213431AB23B685A803B7B1B021AB2D3
:101210007B7B1BB213431AB23B689A80BB7B1B02D9
:101220001AB2FB7B1BB21343FB863B7C1B021AB238
:101230007B7C1BB213431AB23B681A84BB7C1B0233
:101240001AB2FB7C1BB213431AB23B685A843B7D33
:101250001B021AB27B7D1BB213431AB23B689A84FD
:101260003B68B3F900301846FFF7C4F84FF00002AE
:10127000B74BFFF753FA02460B463968C1E9022320
:101280003B68B3F902301846FFF7B4F84FF000029C
:10129000AF4BFFF743FA02460B463968C1E9042316
:1012A0003B68B3F904301846FFF7A4F8A2A3D3E9CA
:1012B0000023FFF733FA02460B463968C1E90623DB
:1012C000B7F936301846FFF7E1FC0346A149184646
:1012D000FFF7E4FD0346A0491846FFF723FC034649
:1012E0001A463B681A643B68B3F920301846FFF78A
:1012F00081F893A3D3E90023FFF710FA02460B46C7
:101300003968C1E90A233B68B3F922301846FFF770
:1013100071F88BA3D3E90023FFF700FA02460B46CE
:101320003968C1E90C233B68B3F924301846FFF74C
:1013300061F883A3D3E90023FFF7F0F902460B46D7
:101340003968C1E90E2301F0C7FB0246834B1B68D5
:10135000D31A1846FFF73EF84FF00002804BFFF714
:10136000DDF902460B46C7E90A2301F0B5FB024648
:101370007A4B1A603B68B3F900301A463B68B3F900
:10138000003003FB02F23B68B3F9043019463B68B6
:10139000B3F9043003FB01F313441846FFF72AF8AE
:1013A00002460B461046194603F0CEFFC7E9080176
:1013B0004FF000024FF00003D7E90801FFF7ECFA05
:1013C0000346002B19D13B68B3F902301846FFF7EA
:1013D00011F8D7E90823FFF7A1F902460B4610469A
:1013E000194603F021FE58A3D3E90023FFF76CF858
:1013F00002460B46C7E90E2305E04FF000024FF00E
:101400000003C7E90E233B68B3F900305B4218467E
:10141000FEF7F0FF82468B463B68B3F9043018466E
:10142000FEF7E8FF02460B465046594603F08AFF96
:1014300045A3D3E90023FFF747F802460B46C7E967
:1014400006234FF00002474BD7E90601FFF7AEFA3B
:101450000346002B0AD03B68D3E914014FF0000289
:10146000414BFFF7C1FA0346002B14D14FF00002A5
:101470003D4BD7E90601FFF7B7FA0346002B15D01D
:101480003B68D3E914014FF00002364BFFF78EFAA8
:101490000346002B0AD03549D7E90623C1E90623C4
:1014A0003968D7E90623C1E9142312E03B68D3E980
:1014B0000C23D7E90A01CDE90201CDE90023D7E9E0
:1014C00006232A4800F056F802460B463968C1E95F
:1014D00014233B68D3E91423904623F000494FF0CE
:1014E0000002214B40464946FFF77EFA0346002B97
:1014F00008D03B68D3E90A23144683F000453B68D3
:10150000C3E90A453B6803F13004D4E90034D7E964
:101510000A12CDE90212CDE90034D7E90E231448AE
:1015200000F028F803460C463A68C2E9123400BFBE
:101530004037BD46BDE8B08F000000000029CC4018
:101540000000000000606040F8C1631ADCA54C4058
:101550000000D0400000AA43B81E124264010020DF
:1015600000408F40008056C0008056404800002058
:1015700000000020B0B592B000AFF860C7E90023CA
:10158000FB6803F12004D4E900341A462346D7E966
:101590001601FEF7E1FD03460C46C7E91034FB686F
:1015A000D3E90645D7E91023D7E91801FEF78CFFE8
:1015B00002460B4620462946FEF7D0FD03460C4660
:1015C000FA68C2E90634FB68D3E90A45FB68D3E947
:1015D0001001D7E91823FEF777FF02460B461046A5
:1015E0001946FB68D3E90C23FEF7B6FD02460B460D
:1015F00010461946FB68D3E90E23FEF7ADFD0246FF
:101600000B4610461946FB68D3E90023FEF7A6FDFA
:1016100002460B4610461946D7E91823FEF754FF39
:1016200002460B4620462946FEF798FD03460C4627
:10163000FA68C2E90A34FB68D3E90C45FB68D3E9D0
:101640001001D7E91823FEF73FFF02460B4620465C
:101650002946FEF781FD03460C46FA68C2E90C34C0
:10166000FB68D3E90E45FB68D3E91001D7E91823DD
:10167000FEF72AFF02460B4620462946FEF76CFD80
:1016800003460C46FA68C2E90E34FB68D3E91045FC
:10169000FB68D3E90201D7E91823FEF715FF0246DC
:1016A0000B4620462946FEF759FD03460C46FA68CC
:1016B000C2E91034FB68D3E90A01FB6803F11004A6
:1016C000D4E900341A462346FEF748FD03460C468B
:1016D000C7E90E34FB68D3E90A01D7E90E23FFF707
:1016E0001DF803460C46C7E90434FB68D3E90E0134
:1016F000D7E90E23FFF712F803460C46C7E9063474
:10170000FB6803F11804D4E900341A462346D7E9EC
:101710000001FEF721FD03460C46C7E90C34FB68C7
:10172000D3E90645D7E90401D7E90C23FEF7CCFE3F
:1017300002460B4620462946FEF710FD03460C469E
:10174000FA68C2E90634FB68D3E90845D7E906011F
:10175000D7E90C23FEF7B8FE02460B462046294681
:10176000FEF7FCFC03460C46FA68C2E90834FB6845
:1017700003F12804D4E90034C7E90A34FB6803F113
:101780003004D4E90034C7E90834FB68D3E90A45DA
:10179000D7E90401D7E90A23FEF796FE02460B4675
:1017A00020462946FEF7D8FC03460C46FA68C2E9F3
:1017B0000A34FB68D3E90C45D7E90401D7E90823CB
:1017C000FEF782FE02460B4620462946FEF7C4FC81
:1017D00003460C46FA68C2E90C34FB68D3E90E45AF
:1017E000D7E90601D7E90A23FEF76EFE02460B464B
:1017F00020462946FEF7B0FC03460C46FA68C2E9CB
:101800000E34FB68D3E91045D7E90601D7E9082370
:10181000FEF75AFE02460B4620462946FEF79CFC80
:1018200003460C46FA68C2E91034FB6803F1180459
:10183000D4E90034184621464837BD46B0BD80B4CF
:1018400085B000AFF860B9607A60FA68BB689A4208
:1018500001DABB6806E0FA687B689A4201DD7B68C2
:1018600000E0FB6818461437BD4680BC7047000096
:1018700080B588B000AF786007F1100300221A60CD
:101880005A609A60DA6007F1080300221A605A6011
:101890001E4B1F4A1A601D4B23225A601B4B00220D
:1018A0009A607B68194AD360184B00221A61174B63
:1018B00000225A61154B00229A61144802F08CFFF5
:1018C0000346002B01D000F0F7FE4FF480533B613C
:1018D00007F1100319460D4803F028F90346002BC1
:1018E00001D000F0E9FE0023BB600023FB6007F19C
:1018F00008031946054803F0F5FA0346002B01D00A
:1019000000F0DAFE00BF2037BD4680BDC0020020D7
:10191000002C014080B588B000AF786007F110035B
:1019200000221A605A609A60DA6007F10803002208
:101930001A605A601D4B4FF080421A601B4B2322E5
:101940005A601A4B00229A607B68184AD360174B82
:1019500000221A61154B00229A61144802F03CFFE4
:101960000346002B01D000F0A7FE4FF480533B61EB
:1019700007F1100319460D4803F0D8F80346002B71
:1019800001D000F099FE0023BB600023FB6007F14B
:1019900008031946054803F0A5FA0346002B01D0B9
:1019A00000F08AFE00BF2037BD4680BD080300203E
:1019B000B0B588B000AFF860B9607A603B60B968D4
:1019C0007868FFF7ADF80346FB61254B1B681946A5
:1019D0007868FFF7A5F803461846FFF771FB034642
:1019E00008226FF007011846FFF729FF0346184643
:1019F000FFF74CF90346BB61F9693868FFF79AF9BC
:101A000003461C46B969386BFFF794F903461D4637
:101A1000144B1B681946B868FFF782F80346396B08
:101A20001846FFF787F9034619462846FFF778F866
:101A30000346F9681846FFF731FA0346194620466F
:101A4000FFF770F803467B61064ABB681360044ADF
:101A50007B6813607B6918462037BD46B0BD00BF68
:101A6000480100204401002090B587B000AFF86025
:101A70007B600B467B8113463B813A897B89D31A75
:101A80009BB2FB82B7F916301E226FF01D0118467B
:101A9000FFF7D5FE03461846FFF7F8F80246204B3D
:101AA0001B6819461046FFF73DF803461A461C4BC3
:101AB0001A601B4B1B681846FFF702FB034642F2F5
:101AC000107218491846FFF7BAFE03461846FFF78A
:101AD000DDF80246124B1A60B7F916301846FFF7C8
:101AE000D5F8034679681846FFF724F903461C46E3
:101AF0000B4B1B68B96A1846FFF71CF90346F968D7
:101B00001846FFF717F9034619462046FFF70AF86B
:101B100003463B613B6918461C37BD4690BD00BF7C
:101B2000A4010020F0D8FFFF80B586B000AFF860B8
:101B3000B9607A603B60BA68FB68D31A1846FFF751
:101B4000A5F8034679681846FFF7F4F803461846E7
:101B5000FFF7B6FA034650226FF04F011846FFF721
:101B60006EFE03461846FFF791F803467B61B7F90E
:101B700020301846FFF78AF8034639681846FFF701
:101B8000D9F8034619467869FEF7CCFF03463B6156
:101B90003B6918461837BD4680BD000080B584B04B
:101BA00000AF0346FB803D4BB3F900301A46B7F94E
:101BB0000630D31A022B09DD384BB3F900309BB243
:101BC000023B9BB21AB2354B1A8016E0334BB3F985
:101BD00000301A46B7F90630D31A13F1020F09DAAA
:101BE0002E4BB3F900309BB202339BB21AB22B4B8F
:101BF0001A8002E0294AFB881380284BB3F9003091
:101C00009BB21A4692001344DB009BB27B81B7F96A
:101C10000A30002B06D14FF6FF73FB60204B0022E9
:101C20001A7021E0B7F90A30002B0EDDB7F90A303F
:101C30001C4A92FBF3F3FB60194B01221A7001223C
:101C40000221194801F0BAF90EE0B7F90A305B42F7
:101C5000144A92FBF3F3FB60114BFF221A7000222F
:101C60000221114801F0AAF9FB68B3F5803F02DBBD
:101C70004FF6FF73FB60F868FFF7FAFD0B4B1B682C
:101C80005A6A0A4BDB689A4203D9084B1B68002248
:101C90005A6200BF1037BD4680BD00BFB4010020AE
:101CA0008A01002080841E0000080140C00200203C
:101CB00080B584B000AF0346FB803D4BB3F90030E4
:101CC0001A46B7F90630D31A022B09DD384BB3F99F
:101CD00000309BB2023B9BB21AB2354B1A8016E021
:101CE000334BB3F900301A46B7F90630D31A13F163
:101CF000020F09DA2E4BB3F900309BB202339BB2CC
:101D00001AB22B4B1A8002E0294AFB881380284B19
:101D1000B3F900309BB21A4692001344DB009BB229
:101D20007B81B7F90A30002B06D14FF6FF73FB60B9
:101D3000204B00221A7021E0B7F90A30002B0EDD8B
:101D4000B7F90A301C4A92FBF3F3FB60194B0122EE
:101D50001A7000220821194801F030F90EE0B7F995
:101D60000A305B42144A92FBF3F3FB60114BFF22F3
:101D70001A7001220821114801F020F9FB68B3F51F
:101D8000803F02DB4FF6FF73FB60F868FFF7C2FD90
:101D90000B4B1B685A6A0A4BDB689A4203D9084B03
:101DA0001B6800225A6200BF1037BD4680BD00BFCD
:101DB000B6010020AC01002080841E000008014014
:101DC0000803002000000000B0B584B002AF00F0AE
:101DD0002BFE00F0A7FA00F003FC00F017FB00F068
:101DE00065FB00F0E5FA00F0ADFBAD4802F044FD04
:101DF000AC4802F041FDAC4802F03EFDAB48FFF7B5
:101E000085F9A94B1B685B6A1A46A94B1A60A94B56
:101E10001B780133DAB2A74B1A70A74B1B7801333A
:101E2000DAB2A54B1A70A54B1A68A14B1B68D31ADE
:101E30001846FEF7DFFA94A3D3E90023FEF744FB2C
:101E400003460C4618462146FEF716FE02469C4BFA
:101E50001A609A4B1B68964A1360934B1B685B6A27
:101E60001A46964B1A60974B1B68974A136097491E
:101E70008E48FFF7A5F9954B03F15004D4E90034DF
:101E800018462146FEF7F8FD0246914B1A60904B2A
:101E90001A68904B1B6819461046FEF743FE03462E
:101EA0001A46884B1A608C4BB3F900301A468B4B9C
:101EB000B3F900301344DA0F13445B101AB2884BA5
:101EC0001A80804B1A68804B1B6819461046FEF733
:101ED00027FE03461846FEF79FFA4FF00002814B9B
:101EE000FEF7F2FA03460C4618462146FEF79CFD23
:101EF0000346FB80FA887A4BB3F900309BB2D31AC1
:101F00009BB2BB80784B1B681846FEF785FA60A32E
:101F1000D3E90023FEF7D8FA03460C4625461C46B3
:101F2000B7F904301846FEF7B1FE03461846FEF72F
:101F300073FA59A3D3E90023FEF7C6FA02460B460B
:101F400020462946FEF70AF903460C461846214664
:101F5000FEF792FD0246644B1A60644B1868644BAE
:101F60001968644B1A68644B1C685B4BB3F900300A
:101F700000932346FFF7D8FD03461846FFF7A0F865
:101F800003461AB25D4B1A805D4B18685D4B1968A9
:101F9000584B1A68584B1C68504BB3F900300093EB
:101FA0002346FFF7C1FD03461846FFF789F80346AD
:101FB0001AB2554B1A80514BB3F900301A46524BA6
:101FC000B3F900301344DA0F13445B101AB24F4BCD
:101FD0001A804E4BB3F900300A226FF009011846FF
:101FE000FFF72DFC03461AB2484B1A80464BB3F953
:101FF00000301A46414BB3F90030D31A1846FEF7A9
:1020000045FE0246424B1A60414B1B681846FFF7DB
:1020100057F803460A226FF009011846FFF70FFC34
:1020200003461846FEF732FE0246394B1A60394B1A
:102030004FF000021A60224B1C682B4B1B6818469D
:10204000FFF73EF8034619B2304BB3F90020324B8C
:102050001868324B1B68009303462046FFF704FDC7
:1020600002462C4B1A602B4B1B681846FFF728F8CA
:1020700004462B4B1B6883F000431846FFF720F8FB
:1020800005464FE0AFF300808DEDB5A0F7C6B03E3A
:10209000CDCCCCCCCCCCEC3F9A9999999999B93FBD
:1020A000C00200200803002070020020C0010020B0
:1020B000740100206C0100208E01002078010020B6
:1020C000A8010020840100209C01002018020020AB
:1020D000BC020020AC000020B4010020B6010020AA
:1020E0009801002000003940A00100207C01002060
:1020F00058010020A0000020A40000209201002030
:102100005C010020940100208C010020700100205F
:10211000B001002054010020980000209C00002005
:10212000A80000206A4B1B681846FEF7C9FF03464B
:102130001A4629462046FFF782FB03461846FEF75B
:10214000A5FD0246634B1A60634B1868634B196820
:10215000604B1A68624B1C68624B1B6800932346F5
:10216000FFF726FC0246604B1B6819461046FEF737
:10217000D9FC03461A465C4B1A605B4B1B68184639
:10218000FEF79EFF03464FF4FA7258491846FFF7D0
:1021900056FB03461846FEF779FD0246524B1A607D
:1021A000514B1A68524B1B6819461046FEF7BAFC91
:1021B00003461846FEF784FF03461AB24D4B1A80B9
:1021C000494B1A684A4B1B6819461046FEF7A8FC93
:1021D00003461846FEF774FF03461AB2464B1A80B0
:1021E000444BB3F900304FF4FA7240491846FFF7F8
:1021F00026FB03461AB23F4B1A803F4BB3F900301F
:102200004FF4FA7239491846FFF719FB03461AB220
:10221000394B1A8046233B603868FEF737FD02468B
:102220002E4B1B6819461046FEF740FF0346002B55
:1022300020D03B685B421846FEF728FD0246274B3C
:102240001B6819461046FEF713FF0346002B11D0FA
:1022500000222021294800F0B1FE264BB3F90030BE
:102260001846FFF79BFC244BB3F900301846FFF7E4
:102270001FFD2CE001222021204800F09FFE0020BD
:10228000FFF78CFC0020FFF713FD1D4B4FF0000201
:102290001A60134B1B4A1A60124B1B4A1A601B4BE5
:1022A0004FF000021A601A4B4FF000021A60194BEF
:1022B00000221A60184B00221A60184B00221A7074
:1022C000174B00221A800A4B4FF000021A609EE55D
:1022D000A800002054010020A80100208401002053
:1022E0009000002094000020680100200CFEFFFFF9
:1022F000B0010020880100205001002000080140AA
:10230000A4010020CDCCCC3D0AD7233E980000206C
:102310009C0000207C0100205C0100204C0100207A
:102320007001002080B590B000AF07F1180328229B
:102330000021184602F070FE3B1D00221A605A6010
:102340009A60DA601A610123BB614FF48033FB614C
:1023500000233B620123BB6202237B634FF4803383
:10236000BB634FF4E013FB6307F11803184601F059
:102370002BFE0346002B01D000F09EF90F237B605B
:102380000223BB600023FB604FF480633B614FF48A
:1023900080637B613B1D0221184602F095F80346DD
:1023A000002B01D000F088F900BF4037BD4680BD4A
:1023B00080B500AF124B134A1A60114B124A5A6093
:1023C0000F4B00229A600E4B0022DA600C4B4FF448
:1023D00080421A610A4B00225A61094B00229A611D
:1023E000074B0022DA61064B00221A62044800F013
:1023F000FDFD0346002B01D000F05EF900BF80BD5B
:10240000C001002000540040A086010080B586B0C5
:1024100000AF07F1080300221A605A609A60DA6080
:102420003B4600221A605A601E4B1F4A1A601D4B21
:1024300023225A601B4B00229A601A4B4FF6FF7200
:10244000DA60184B00221A61164B00225A61154BB4
:1024500000229A61134802F0BFF90346002B01D015
:1024600000F02AF94FF48053BB6007F108031946C6
:102470000C4802F05BFB0346002B01D000F01CF976
:1024800000233B6000237B603B461946054802F071
:1024900029FD0346002B01D000F00EF900BF1837CC
:1024A000BD4680BDC0020020002C014080B586B032
:1024B00000AF07F1080300221A605A609A60DA60E0
:1024C0003B4600221A605A601D4B4FF080421A6052
:1024D0001B4B23225A601A4B00229A60184B4FF66E
:1024E000FF72DA60164B00221A61154B00229A61C6
:1024F000134802F071F90346002B01D000F0DCF81C
:102500004FF48053BB6007F1080319460C4802F0F2
:102510000DFB0346002B01D000F0CEF800233B60FA
:1025200000237B603B461946054802F0DBFC03466E
:10253000002B01D000F0C0F800BF1837BD4680BDA9
:102540000803002080B586B000AF07F10803002221
:102550001A605A609A60DA603B4600221A605A603C
:102560001D4B1E4A1A601C4B47225A601A4B002210
:102570009A60194B4FF6FF72DA60174B00221A610E
:10258000154B00229A61144802F026F90346002BED
:1025900001D000F091F84FF48053BB6007F10803BD
:1025A00019460D4802F0C2FA0346002B01D000F094
:1025B00083F800233B6000237B603B4619460648B6
:1025C00002F090FC0346002B01D000F075F800BF2C
:1025D0001837BD4680BD00BF7002002000040040D7
:1025E00080B588B000AF07F1100300221A605A606E
:1025F0009A60DA602D4B9B692C4A43F0100393617B
:102600002A4B9B6903F01003FB60FB68274B9B6917
:10261000264A43F020039361244B9B6903F0200377
:10262000BB60BB68214B9B69204A43F00403936164
:102630001E4B9B6903F004037B607B681B4B9B690B
:102640001A4A43F008039361184B9B6903F008038F
:102650003B603B6800224FF40051154800F0AEFC8F
:1026600000223E21134800F0A9FC4FF400533B61C7
:1026700001237B610023BB610223FB6107F110038F
:1026800019460B4800F040FB3E233B6101237B6170
:102690000023BB610223FB6107F1100319460548C3
:1026A00000F032FB00BF2037BD4680BD0010024065
:1026B000001001400008014080B400AF72B6FEE790
:1026C00080B485B000AF154B9B69144A43F00103F9
:1026D0009361124B9B6903F00103BB60BB680F4B16
:1026E000DB690E4A43F08053D3610C4BDB6903F086
:1026F00080537B607B680A4B5B68FB60FB6823F060
:10270000E063FB60FB6843F00073FB60044AFB6816
:10271000536000BF1437BD4680BC704700100240B4
:102720000000014080B58AB000AF786007F1140363
:1027300000221A605A609A60DA607B681B681D4A42
:10274000934232D11C4B9B691B4A43F008039361AF
:10275000194B9B6903F008033B613B694FF44073DD
:102760007B611223BB6103233B6207F1140319460B
:10277000124800F0C9FA124B5B687B627B6A43F037
:10278000E0637B627B6A43F002037B620C4A7B6AF4
:102790005360094BDB69084A43F40013D361064BCD
:1027A000DB6903F40013FB60FB6800BF2837BD46FC
:1027B00080BD00BF0054004000100240000C0140EA
:1027C0000000014080B586B000AF78607B681B6870
:1027D000274A934214D1274B9B69264A43F400634E
:1027E0009361244B9B6903F400637B617B69002246
:1027F0000221192000F051FA192000F06AFA32E0A3
:102800007B681B68B3F1804F14D11A4BDB69194AFE
:1028100043F00103D361174BDB6903F001033B6114
:102820003B69002202211C2000F037FA1C2000F036
:1028300050FA18E07B681B680F4A934213D10D4B86
:10284000DB690C4A43F00203D3610A4BDB6903F0F6
:102850000203FB60FB68002200211D2000F01DFA2E
:102860001D2000F036FA00BF1837BD4680BD00BFFE
:10287000002C0140001002400004004080B400AF72
:10288000FEE780B400AFFEE780B400AFFEE780B49F
:1028900000AFFEE780B400AFFEE780B400AF00BF3A
:1028A000BD4680BC704780B400AF00BFBD4680BC51
:1028B000704780B400AF00BFBD4680BC704780B594
:1028C00000AF00F0F7F800BF80BD000080B582B017
:1028D00000AF184802F022F8174B93F90030002B94
:1028E00024D001220421154800F068FB00237B60FE
:1028F00003E000BF7B6801337B607B68312BF8DD30
:102900000D4B93F90030002B05DD0D4B1B68013B8F
:102910000B4A136004E00A4B1B680133084A13603A
:1029200000220421054800F049FB00E000BF083701
:10293000BD4680BDC00200208A0100200008014081
:102940007C01002080B582B000AF184801F0E6FF9E
:10295000174B93F90030002B24D001221021154889
:1029600000F02CFB00237B6003E000BF7B68013399
:102970007B607B68312BF8DD0D4B93F90030002B29
:1029800005DD0D4B1B68013B0B4A136004E00A4B4D
:102990001B680133084A136000221021054800F02B
:1029A0000DFB00E000BF0837BD4680BD08030020D6
:1029B000AC010020000801405C01002080B500AFA0
:1029C000024801F0ABFF00BF80BD00BF70020020D5
:1029D00080B400AF00BFBD4680BC70470C480D49B5
:1029E0000D4A002302E0D458C4500433C4188C426A
:1029F000F9D30A4A0A4C002301E013600432A242D0
:102A0000FBD3FFF7E5FF02F0E3FAFFF7DDF97047CC
:102A10000000002024010020A05700082801002009
:102A200054030020FEE7000080B500AF084B1B6890
:102A3000074A43F010031360032000F023F900203D
:102A400000F008F8FFF73CFE0023184680BD00BFE9
:102A50000020024080B582B000AF7860124B1A6847
:102A6000124B1B7819464FF47A73B3FBF1F3B2FBA8
:102A7000F3F3184600F03BF90346002B01D0012385
:102A80000EE07B680F2B0AD8002279684FF0FF30E8
:102A900000F003F9064A7B681360002300E001237D
:102AA00018460837BD4680BDB0000020B8000020A1
:102AB000B400002080B400AF054B1B781A46054BCC
:102AC0001B681344034A136000BFBD4680BC7047B7
:102AD000B80000205003002080B400AF024B1B68F8
:102AE0001846BD4680BC70475003002080B485B0B6
:102AF00000AF78607B6803F00703FB600C4BDB687A
:102B0000BB60BA684FF6FF031340BB60FB681A0254
:102B1000BB68134343F0BF6343F40033BB60044A14
:102B2000BB68D36000BF1437BD4680BC704700BF90
:102B300000ED00E080B400AF044BDB681B0A03F03B
:102B400007031846BD4680BC704700BF00ED00E09B
:102B500080B483B000AF0346FB7197F90730002BB8
:102B60000BDBFB7903F01F02064997F907305B097D
:102B7000012000FA02F241F8232000BF0C37BD46C5
:102B800080BC704700E100E080B483B000AF034632
:102B90003960FB7197F90730002B0ADB3B68DAB22A
:102BA0000C4997F907301201D2B20B4483F8002385
:102BB0000AE03B68DAB20849FB7903F00F03043BF3
:102BC0001201D2B20B441A7600BF0C37BD4680BC4E
:102BD000704700BF00E100E000ED00E080B489B084
:102BE00000AFF860B9607A60FB6803F00703FB612F
:102BF000FB69C3F10703042B28BF0423BB61FB69F6
:102C00000433062B02D9FB69033B00E000237B6100
:102C10004FF0FF32BB6902FA03F3DA43BB681A4094
:102C20007B699A404FF0FF317B6901FA03F3D94386
:102C30007B680B40134318462437BD4680BC704761
:102C400080B582B000AF78607B68013BB3F1807FD4
:102C500001D301230FE00A4A7B68013B53600F2137
:102C60004FF0FF30FFF790FF054B00229A60044BB6
:102C700007221A60002318460837BD4680BD00BFF2
:102C800010E000E080B582B000AF78607868FFF7B0
:102C90002DFF00BF0837BD4680BD80B586B000AFB0
:102CA0000346B9607A60FB7300237B61FFF742FF44
:102CB00078617A68B9687869FFF790FF024697F9FA
:102CC0000F3011461846FFF75FFF00BF1837BD46AB
:102CD00080BD80B582B000AF0346FB7197F9073025
:102CE0001846FFF735FF00BF0837BD4680BD80B5E9
:102CF00082B000AF78607868FFF7A2FF03461846FD
:102D00000837BD4680BD000080B48BB000AF78604E
:102D1000396000237B6200233B6227E101227B6A4A
:102D200002FA03F3FB613B681B68FA691340BB615D
:102D3000BA69FB699A4240F016813B685B68122BC6
:102D400034D0122B0DD8022B2BD0022B04D8002B01
:102D500031D0012B1CD048E0032B43D0112B1BD0CA
:102D600043E0894A934226D0874A934206D8874A4D
:102D7000934220D0864A93421DD036E0854A934242
:102D800019D0854A934216D0844A934213D02CE03E
:102D90003B68DB683B6228E03B68DB6804333B62EE
:102DA00023E03B68DB6808333B621EE03B68DB687E
:102DB0000C333B6219E03B689B68002B02D1042373
:102DC0003B6212E03B689B68012B05D108233B6204
:102DD0007B68FA691A6108E008233B627B68FA693C
:102DE0005A6102E000233B6200BFBB69FF2B01D8A0
:102DF0007B6801E07B6804337B61BB69FF2B02D8F1
:102E00007B6A9B0002E07B6A083B9B003B617B691D
:102E10001A680F213B6901FA03F3DB431A40396A50
:102E20003B6901FA03F31A437B691A603B685B68EC
:102E300003F08053002B00F09680594B9B69584A51
:102E400043F001039361564B9B6903F00103BB60A0
:102E5000BB68544A7B6A9B08023352F82330FB60FC
:102E60007B6A03F003039B000F2202FA03F3DB43A8
:102E7000FA681340FB607B684B4A934213D07B682F
:102E80004A4A93420DD07B68494A934207D07B68F7
:102E9000484A934201D1032306E0042304E00223BD
:102EA00002E0012300E000237A6A02F003029200AC
:102EB0009340FA681343FB603A497B6A9B080233EC
:102EC000FA6841F823203B685B6803F48033002BE9
:102ED00006D0394B1A683849BB6913430B6006E0CA
:102EE000354B1A68BB69DB43334913400B603B68C1
:102EF0005B6803F40033002B06D02F4B5A682E4931
:102F0000BB6913434B6006E02B4B5A68BB69DB433C
:102F1000294913404B603B685B6803F48013002B26
:102F200006D0254B9A682449BB6913438B6006E0A1
:102F3000214B9A68BB69DB431F4913408B603B6898
:102F40005B6803F40013002B06D01B4BDA681A49A8
:102F5000BB691343CB6006E0174BDA68BB69DB4300
:102F600015491340CB607B6A01337B623B681A686A
:102F70007B6A22FA03F3002B7FF4D0AE00BF2C371C
:102F8000BD4680BC704700BF00002110000011103A
:102F9000000012100000311000003210000022105A
:102FA000001002400000014000080140000C0140F8
:102FB00000100140001401400004014080B483B0BF
:102FC00000AF78600B467B8013467B707B78002BCC
:102FD00003D07A887B681A6103E07B881A047B68D7
:102FE0001A6100BF0C37BD4680BC704780B584B005
:102FF00000AF78607B68002B01D101231FE17B6863
:1030000093F83D30DBB2002B06D17B68002283F8B9
:103010003C207868FFF786FB7B68242283F83D20FC
:103020007B681B681A687B681B6822F001021A60C3
:103030007B681B681A687B681B6842F400421A6050
:103040007B681B681A687B681B6822F400421A6060
:1030500001F090FBF8607B685B687B4A934207D87D
:10306000FB687A4A934294BF01230023DBB206E057
:10307000FB68774A934294BF01230023DBB2002B05
:1030800001D00123DBE0FB68724AA2FB03239B0C07
:10309000BB607B681B685B6823F03F017B681B6833
:1030A000BA680A435A607B681B681B6A23F03F01B9
:1030B0007B685B68644A934202D8BB68013309E0CD
:1030C000BB684FF4967202FB03F3634AA2FB03232F
:1030D0009B0901337A6812680B4313627B681B6893
:1030E000DB6923F44F4222F0FF027B685B6856499C
:1030F0008B420DD8FB68591E7B685B685B00B1FB97
:10310000F3F30133C3F30B03042B38BF04234FE065
:103110007B689B68002B11D1FB68581E7B6859683F
:103120000B465B000B44B0FBF3F30133C3F30B031B
:10313000002B0CBF01230023DBB212E0FB68581EFA
:103140007B6859680B469B000B4499000B44B0FB0D
:10315000F3F30133C3F30B03002B0CBF0123002354
:10316000DBB2002B01D0012322E07B689B68002B9F
:103170000ED1FB68581E7B6859680B465B000B44F8
:10318000B0FBF3F30133C3F30B0343F400430FE04D
:10319000FB68581E7B6859680B469B000B449900DE
:1031A0000B44B0FBF3F30133C3F30B0343F440438D
:1031B000796809681343CB617B681B681B6823F03F
:1031C000C0017B68DA697B681B6A1A437B681B68ED
:1031D0000A431A607B681B689B6823F4034323F04F
:1031E000FF037A6811697A68D26811437A681268B5
:1031F0000B4393607B681B68DB6823F0FF017B68EF
:103200005A697B689B691A437B681B680A43DA60CA
:103210007B681B681A687B681B6842F001021A60B1
:103220007B6800221A647B68202283F83D207B683B
:1032300000221A637B68002283F83E200023184690
:103240001037BD4680BD00BFA08601007F841E00F0
:10325000FF083D0083DE1B43D34D621080B588B06C
:1032600002AFF860084611461A4603467B810B46BA
:103270003B811346FB80FFF72FFC7861FB6893F8D6
:103280003D30DBB2202B40F0D9807B6900931923BD
:1032900001226D49F86800F0BBFC0346002B01D009
:1032A0000223CCE0FB6893F83C30012B01D10223D0
:1032B000C5E0FB68012283F83C20FB681B681B68A3
:1032C00003F00103012B07D0FB681B681A68FB6839
:1032D0001B6842F001021A60FB681B681A68FB68F1
:1032E0001B6822F400621A60FB68212283F83D20EB
:1032F000FB68402283F83E20FB6800221A64FB68CA
:103300003A6A5A62FB68BA8C5A85FB685B8D9AB23E
:10331000FB681A85FB684D4ADA62F8883A89798930
:103320007B690193BB6A00930346F86800F0F2FAE8
:103330000346002B52D0012381E07A69B96AF8680C
:1033400000F03CFD0346002B0DD0FB681B6C042BEA
:1033500007D1FB681B681A68FB681B6842F400729F
:103360001A6001236BE0FB685B6A1A78FB681B68D4
:103370001A61FB685B6A5A1CFB685A62FB681B8D0A
:10338000013B9AB2FB681A85FB685B8D9BB2013BDF
:103390009AB2FB685A85FB681B685B6903F00403FB
:1033A000042B1BD1FB681B8D002B17D0FB685B6ABD
:1033B0001A78FB681B681A61FB685B6A5A1CFB6819
:1033C0005A62FB681B8D013B9AB2FB681A85FB6849
:1033D0005B8D9BB2013B9AB2FB685A85FB681B8DE3
:1033E000002BAAD17A69B96AF86800F028FD034673
:1033F000002B0DD0FB681B6C042B07D1FB681B68EE
:103400001A68FB681B6842F400721A60012316E018
:10341000FB681B681A68FB681B6842F400721A603C
:10342000FB68202283F83D20FB68002283F83E20C1
:10343000FB68002283F83C20002300E002231846AA
:103440001837BD4680BD00BF020010000000FFFF1E
:1034500080B58CB002AFF860084611461A460346A4
:103460007B810B463B811346FB8000233B62FFF7C9
:1034700033FB7862FB6893F83D30DBB2202B40F0E1
:103480003D827B6A0093192301228149F86800F08C
:10349000BFFB0346002B01D0022330E2FB6893F808
:1034A0003C30012B01D1022329E2FB68012283F881
:1034B0003C20FB681B681B6803F00103012B07D04D
:1034C000FB681B681A68FB681B6842F001021A60FF
:1034D000FB681B681A68FB681B6822F400621A60AC
:1034E000FB68222283F83D20FB68402283F83E20BF
:1034F000FB6800221A64FB683A6B5A62FB68BA8E5A
:103500005A85FB685B8D9AB2FB681A85FB68614A35
:10351000DA62F8883A8979897B6A0193BB6B0093F8
:103520000346F86800F08CFA0346002B01D0012313
:10353000E5E1FB681B8D002B13D10023FB61FB68C9
:103540001B685B69FB61FB681B689B69FB61FB692E
:10355000FB681B681A68FB681B6842F400721A60FB
:10356000B9E1FB681B8D012B1DD1FB681B681A6834
:10357000FB681B6822F480621A6072B60023BB618C
:10358000FB681B685B69BB61FB681B689B69BB616F
:10359000BB69FB681B681A68FB681B6842F4007211
:1035A0001A6062B697E1FB681B8D022B1DD1FB6888
:1035B0001B681A68FB681B6842F400621A6072B6E6
:1035C00000237B61FB681B685B697B61FB681B6890
:1035D0009B697B617B69FB681B681A68FB681B68D9
:1035E00022F480621A6062B675E1FB681B681A6893
:1035F000FB681B6842F480621A6000233B61FB6831
:103600001B685B693B61FB681B689B693B613B69AD
:1036100061E1FB681B8D032B00F21A81FB681B8D97
:10362000012B23D17A6AB96BF86800F049FC034694
:10363000002B01D0012362E1FB681B681A69FB685B
:103640005B6AD2B21A70FB685B6A5A1CFB685A62EA
:10365000FB681B8D013B9AB2FB681A85FB685B8D8A
:103660009BB2013B9AB2FB685A8534E1FB681B8D23
:10367000022B50D17B6A0093BB6B00220649F8688D
:1036800000F0C6FA0346002B08D0012337E100BF43
:10369000020010000000FFFF0400010072B6FB688A
:1036A0001B681A68FB681B6842F400721A60FB68AA
:1036B0001B681A69FB685B6AD2B21A70FB685B6AA6
:1036C0005A1CFB685A62FB681B8D013B9AB2FB686F
:1036D0001A85FB685B8D9BB2013B9AB2FB685A85E9
:1036E00062B6FB681B681A69FB685B6AD2B21A7023
:1036F000FB685B6A5A1CFB685A62FB681B8D013BC6
:103700009AB2FB681A85FB685B8D9BB2013B9AB24B
:10371000FB685A85DFE07B6A0093BB6B00227A4925
:10372000F86800F075FA0346002B01D00123E6E0AB
:10373000FB681B681A68FB681B6822F480621A60C9
:1037400072B6FB681B681A69FB685B6AD2B21A70B2
:10375000FB685B6A5A1CFB685A62FB681B8D013B65
:103760009AB2FB681A85FB685B8D9BB2013B9AB2EB
:10377000FB685A85654B1B68DB08654AA2FB03237F
:103780001A0A13469B001344DA00D31A3B623B6AC1
:10379000013B3B623B6A002B17D1FB6800221A6396
:1037A000FB68202283F83D20FB68002283F83E203E
:1037B000FB681B6C43F02002FB681A6462B6FB686E
:1037C000002283F83C20012399E0FB681B685B69B9
:1037D00003F00403042BDAD1FB681B681A68FB684A
:1037E0001B6842F400721A60FB681B681A69FB6868
:1037F0005B6AD2B21A70FB685B6A5A1CFB685A6239
:10380000FB681B8D013B9AB2FB681A85FB685B8DD8
:103810009BB2013B9AB2FB685A8562B6FB681B6893
:103820001A69FB685B6AD2B21A70FB685B6A5A1C41
:10383000FB685A62FB681B8D013B9AB2FB681A85D4
:10384000FB685B8D9BB2013B9AB2FB685A8542E0F4
:103850007A6AB96BF86800F033FB0346002B01D09D
:1038600001234CE0FB681B681A69FB685B6AD2B2F3
:103870001A70FB685B6A5A1CFB685A62FB681B8DF6
:10388000013B9AB2FB681A85FB685B8D9BB2013BDA
:103890009AB2FB685A85FB681B685B6903F00403F6
:1038A000042B18D1FB681B681A69FB685B6AD2B2EB
:1038B0001A70FB685B6A5A1CFB685A62FB681B8DB6
:1038C000013B9AB2FB681A85FB685B8D9BB2013B9A
:1038D0009AB2FB685A85FB681B8D002B7FF499AE6A
:1038E000FB68202283F83D20FB68002283F83E20FD
:1038F000FB68002283F83C20002300E002231846E6
:103900002837BD4680BD00BF04000100B000002084
:1039100089B5F81480B588B002AFF8600846114642
:103920001A4603467B810B463B811346FB80FB68AE
:103930001B681A68FB681B6842F480721A607B6A15
:1039400000933B6A00224FF00111F86800F060F923
:103950000346002B0DD0FB681B681B6803F48073C3
:10396000B3F5807F03D1FB684FF400721A64032320
:103970005FE07B89DBB21A46FB681B6802F0FE023F
:103980001A617B6A3A6A2D49F86800F098F9034693
:10399000002B01D001234CE000237B61FB681B68F6
:1039A0005B697B61FB681B689B697B617B697A6AE9
:1039B000396AF86800F002FA0346002B0DD0FB6864
:1039C0001B6C042B07D1FB681B681A68FB681B681B
:1039D00042F400721A6001232BE0FB88012B05D111
:1039E0003B89DAB2FB681B681A6121E03B891B0A3C
:1039F0009BB2DAB2FB681B681A617A6A396AF868A6
:103A000000F0DCF90346002B0DD0FB681B6C042B87
:103A100007D1FB681B681A68FB681B6842F40072D8
:103A20001A60012305E03B89DAB2FB681B681A6162
:103A3000002318461837BD4680BD00BF02000100B4
:103A400080B588B002AFF860084611461A460346B2
:103A50007B810B463B811346FB80FB681B681A6821
:103A6000FB681B6842F480621A60FB681B681A6876
:103A7000FB681B6842F480721A607B6A00933B6AA1
:103A800000224FF00111F86800F0C2F80346002B45
:103A90000DD0FB681B681B6803F48073B3F5807F4F
:103AA00003D1FB684FF400721A640323AAE07B89F8
:103AB000DBB21A46FB681B6802F0FE021A617B6AE1
:103AC0003A6A5249F86800F0FAF80346002B01D030
:103AD000012397E000237B61FB681B685B697B61C6
:103AE000FB681B689B697B617B697A6A396AF86845
:103AF00000F064F90346002B0DD0FB681B6C042B0F
:103B000007D1FB681B681A68FB681B6842F40072E7
:103B10001A60012376E0FB88012B05D13B89DAB2DC
:103B2000FB681B681A6121E03B891B0A9BB2DAB271
:103B3000FB681B681A617A6A396AF86800F03EF916
:103B40000346002B0DD0FB681B6C042B07D1FB68D0
:103B50001B681A68FB681B6842F400721A60012334
:103B600050E03B89DAB2FB681B681A617A6A396AED
:103B7000F86800F023F90346002B0DD0FB681B6C9E
:103B8000042B07D1FB681B681A68FB681B6842F4AA
:103B900000721A60012335E0FB681B681A68FB6835
:103BA0001B6842F480721A607B6A00933B6A0022B1
:103BB0004FF00111F86800F02BF80346002B0DD0F0
:103BC000FB681B681B6803F48073B3F5807F03D127
:103BD000FB684FF400721A64032313E07B89DBB2A5
:103BE00043F00103DAB2FB681B681A617B6A3A6A28
:103BF0000649F86800F063F80346002B01D0012362
:103C000000E0002318461837BD4680BD02000100C1
:103C100080B584B000AFF860B9603B601346FB71BB
:103C200025E03B68B3F1FF3F21D0FEF755FF024688
:103C3000BB69D31A3A689A4202D33B68002B16D16B
:103C4000FB6800221A63FB68202283F83D20FB6892
:103C5000002283F83E20FB681B6C43F02002FB68C7
:103C60001A64FB68002283F83C20012323E0BB6830
:103C70001B0CDBB2012B0DD1FB681B685B69DA43BF
:103C8000BB6813409BB2002B0CBF01230023DBB2A7
:103C90001A460CE0FB681B689B69DA43BB6813405B
:103CA0009BB2002B0CBF01230023DBB21A46FB7929
:103CB0009A42B6D0002318461037BD4680BD80B565
:103CC00084B000AFF860B9607A603B6051E0FB6897
:103CD0001B685B6903F48063B3F5806F23D1FB68D5
:103CE0001B681A68FB681B6842F400721A60FB6864
:103CF0001B686FF480625A61FB6800221A63FB68DC
:103D0000202283F83D20FB68002283F83E20FB68D8
:103D10001B6C43F00402FB681A64FB68002283F802
:103D20003C20012346E07B68B3F1FF3F21D0FEF742
:103D3000D3FE02463B68D31A7A689A4202D37B6864
:103D4000002B16D1FB6800221A63FB68202283F83F
:103D50003D20FB68002283F83E20FB681B6C43F08B
:103D60002002FB681A64FB68002283F83C200123D0
:103D700020E0BB681B0CDBB2012B0CD1FB681B687D
:103D80005B69DA43BB6813409BB2002B14BF01236D
:103D90000023DBB20BE0FB681B689B69DA43BB685E
:103DA00013409BB2002B14BF01230023DBB2002B76
:103DB0008DD1002318461037BD4680BD80B584B034
:103DC00000AFF860B9607A602DE0F86800F0CEF8D6
:103DD0000346002B01D001232DE0BB68B3F1FF3F68
:103DE00021D0FEF779FE02467B68D31ABA689A4260
:103DF00002D3BB68002B16D1FB6800221A63FB6854
:103E0000202283F83D20FB68002283F83E20FB68D7
:103E10001B6C43F02002FB681A64FB68002283F8E5
:103E20003C20012307E0FB681B685B6903F080030B
:103E3000802BCAD1002318461037BD4680BD80B5FF
:103E400084B000AFF860B9607A602DE0F86800F0E7
:103E50008DF80346002B01D001232DE0BB68B3F1A0
:103E6000FF3F21D0FEF738FE02467B68D31ABA68BE
:103E70009A4202D3BB68002B16D1FB6800221A635A
:103E8000FB68202283F83D20FB68002283F83E2057
:103E9000FB681B6C43F02002FB681A64FB6800227D
:103EA00083F83C20012307E0FB681B685B6903F093
:103EB0000403042BCAD1002318461037BD4680BD29
:103EC00080B584B000AFF860B9607A6042E0FB680A
:103ED0001B685B6903F01003102B19D1FB681B688A
:103EE0006FF010025A61FB6800221A63FB682022FF
:103EF00083F83D20FB68002283F83E20FB681A6CA3
:103F0000FB681A64FB68002283F83C20012329E047
:103F1000FEF7E2FD02467B68D31ABA689A4202D3E2
:103F2000BB68002B16D1FB6800221A63FB682022B5
:103F300083F83D20FB68002283F83E20FB681B6C61
:103F400043F02002FB681A64FB68002283F83C20DF
:103F5000012307E0FB681B685B6903F04003402B0B
:103F6000B5D1002318461037BD4680BD80B483B05C
:103F700000AF78607B681B685B6903F48063B3F50E
:103F8000806F1BD17B681B686FF480625A617B680D
:103F900000221A637B68202283F83D207B68002280
:103FA00083F83E207B681B6C43F004027B681A6434
:103FB0007B68002283F83C20012300E000231846A0
:103FC0000C37BD4680BC704780B586B000AF7860C6
:103FD0007B68002B01D101236CE27B681B6803F036
:103FE0000103002B00F08780924B5B6803F00C0309
:103FF000042B0CD08F4B5B6803F00C03082B12D101
:104000008C4B5B6803F48033B3F5803F0BD1894B55
:104010001B6803F40033002B6CD07B685B68002BBB
:1040200068D1012346E27B685B68B3F5803F06D127
:10403000804B1B687F4A43F4803313602EE07B681B
:104040005B68002B0CD17B4B1B687A4A23F48033CE
:104050001360784B1B68774A23F4802313601DE0BC
:104060007B685B68B3F5A02F0CD1724B1B68714A5B
:1040700043F4802313606F4B1B686E4A43F4803314
:1040800013600BE06B4B1B686A4A23F480331360A8
:10409000684B1B68674A23F4802313607B685B6866
:1040A000002B13D0FEF718FD386108E0FEF714FD71
:1040B00002463B69D31A642B01D90323FAE15D4B15
:1040C0001B6803F40033002BF0D014E0FEF704FD6E
:1040D000386108E0FEF700FD02463B69D31A642B05
:1040E00001D90323E6E1534B1B6803F40033002B93
:1040F000F0D100E000BF7B681B6803F00203002BD7
:1041000063D04C4B5B6803F00C03002B0BD0494B86
:104110005B6803F00C03082B1CD1464B5B6803F46F
:104120008033002B16D1434B1B6803F00203002B96
:1041300005D07B681B69012B01D00123BAE13D4BFF
:104140001B6823F0F8027B685B69DB003949134385
:104150000B603AE07B681B69002B20D0364B0122B4
:104160001A60FEF7B9FC386108E0FEF7B5FC0246BC
:104170003B69D31A022B01D903239BE12D4B1B680A
:1041800003F00203002BF0D02A4B1B6823F0F80247
:104190007B685B69DB00274913430B6015E0264B06
:1041A00000221A60FEF798FC386108E0FEF794FCE4
:1041B00002463B69D31A022B01D903237AE11D4B36
:1041C0001B6803F00203002BF0D17B681B6803F02F
:1041D0000803002B3AD07B689B69002B19D0174B42
:1041E00001221A60FEF778FC386108E0FEF774FCE3
:1041F00002463B69D31A022B01D903235AE10D4B26
:104200005B6A03F00203002BF0D0012000F0C6FA35
:104210001CE00A4B00221A60FEF75EFC38610FE0DA
:10422000FEF75AFC02463B69D31A022B08D9032336
:1042300040E100BF001002400000424280044242C0
:104240009E4B5B6A03F00203002BE9D17B681B687D
:1042500003F00403002B00F0A6800023FB75974BAE
:10426000DB6903F08053002B0DD1944BDB69934A3B
:1042700043F08053D361914BDB6903F08053BB6003
:10428000BB680123FB758E4B1B6803F48073002B06
:1042900018D18B4B1B688A4A43F480731360FEF776
:1042A0001BFC386108E0FEF717FC02463B69D31A95
:1042B000642B01D90323FDE0814B1B6803F4807359
:1042C000002BF0D07B68DB68012B06D17B4B1B6A8F
:1042D0007A4A43F0010313622DE07B68DB68002B10
:1042E0000CD1764B1B6A754A23F001031362734BA2
:1042F0001B6A724A23F0040313621CE07B68DB68CC
:10430000052B0CD16D4B1B6A6C4A43F004031362FE
:104310006A4B1B6A694A43F0010313620BE0674B67
:104320001B6A664A23F001031362644B1B6A634AEB
:1043300023F0040313627B68DB68002B15D0FEF7C3
:10434000CBFB38610AE0FEF7C7FB02463B69D31A94
:1043500041F28832934201D90323ABE0574B1B6AE9
:1043600003F00203002BEED014E0FEF7B5FB38613A
:104370000AE0FEF7B1FB02463B69D31A41F28832EC
:10438000934201D9032395E04C4B1B6A03F00203CF
:10439000002BEED1FB7D012B05D1484BDB69474A51
:1043A00023F08053D3617B68DB69002B00F08180B0
:1043B000424B5B6803F00C03082B61D07B68DB6920
:1043C000022B46D13F4B00221A60FEF785FB386175
:1043D00008E0FEF781FB02463B69D31A022B01D9A4
:1043E000032367E0354B1B6803F00073002BF0D10B
:1043F0007B681B6AB3F5803F08D1304B5B6823F4C0
:1044000000327B689B682D4913434B602B4B5B68E4
:1044100023F474127B68196A7B685B6A0B43274933
:1044200013434B60274B01221A60FEF755FB38619E
:1044300008E0FEF751FB02463B69D31A022B01D973
:10444000032337E01D4B1B6803F00073002BF0D0F3
:104450002FE01C4B00221A60FEF73EFB386108E09B
:10446000FEF73AFB02463B69D31A022B01D903231C
:1044700020E0124B1B6803F00073002BF0D118E012
:104480007B68DB69012B01D1012313E00B4B5B68D7
:10449000FB60FB6803F480327B681B6A9A4206D19A
:1044A000FB6803F470127B685B6A9A4201D00123B7
:1044B00000E0002318461837BD4680BD00100240BA
:1044C000007000406000424280B584B000AF786068
:1044D00039607B68002B01D10123D0E06A4B1B6857
:1044E00003F007033A689A4210D9674B1B6823F020
:1044F000070265493B6813430B60634B1B6803F07D
:1045000007033A689A4201D00123B8E07B681B6830
:1045100003F00203002B20D07B681B6803F0040328
:10452000002B05D0594B5B68584A43F4E063536055
:104530007B681B6803F00803002B05D0534B5B68B6
:10454000524A43F460535360504B5B6823F0F002CF
:104550007B689B684D4913434B607B681B6803F085
:104560000103002B40D07B685B68012B07D1474BD0
:104570001B6803F40033002B15D101237FE07B6817
:104580005B68022B07D1414B1B6803F00073002BC3
:1045900009D1012373E03D4B1B6803F00203002B9C
:1045A00001D101236BE0394B5B6823F003027B6888
:1045B0005B68364913434B60FEF78EFAF8600AE0F9
:1045C000FEF78AFA0246FB68D31A41F28832934218
:1045D00001D9032353E02D4B5B6803F00C027B6889
:1045E0005B689B009A42EBD1274B1B6803F00703E3
:1045F0003A689A4210D2244B1B6823F007022249E2
:104600003B6813430B60204B1B6803F007033A68B9
:104610009A4201D0012332E07B681B6803F0040357
:10462000002B08D0194B5B6823F4E0627B68DB68E1
:10463000164913434B607B681B6803F00803002B8B
:1046400009D0124B5B6823F460527B681B69DB0066
:104650000E4913434B6000F021F801460B4B5B6899
:104660001B0903F00F030A4AD35C21FA03F3094A3A
:104670001360094B1B681846FEF7ECF90023184637
:104680001037BD4680BD00BF002002400010024030
:1046900034570008B0000020B400002090B48AB065
:1046A00000AF2A4B3C1D0FCB84E80F00284B1B8822
:1046B0003B800023FB610023BB6100237B6200235E
:1046C0007B6100233B62234B5B68FB61FB6903F06A
:1046D0000C03042B02D0082B03D02DE01E4B3B62B1
:1046E0002DE0FB699B0C03F00F0307F12802134434
:1046F00013F8243C7B61FB6903F48033002B13D057
:10470000144B5B685B0C03F0010307F128021344B0
:1047100013F8283CBB617B690F4A02FB03F2BB69BB
:10472000B2FBF3F37B6204E07B690C4A02FB03F308
:104730007B627B6A3B6202E0074B3B6200BF3B6AE5
:1047400018462837BD4690BC704700BF2057000868
:10475000305700080010024000127A0000093D00A6
:1047600080B400AF024B1B681846BD4680BC704742
:10477000B000002080B500AFFFF7F2FF0146054B07
:104780005B681B0A03F00703034AD35C21FA03F3B7
:10479000184680BD001002404457000880B485B020
:1047A00000AF78600A4B1B680A4AA2FB03235B0A2E
:1047B0007A6802FB03F3FB6000BFFB685A1EFA60D5
:1047C000002BF9D100BF1437BD4680BC704700BF35
:1047D000B0000020D34D621080B582B000AF786089
:1047E0007B68002B01D1012341E07B6893F83D30C9
:1047F000DBB2002B06D17B68002283F83C2078686E
:10480000FDF7E0FF7B68022283F83D207B681A6891
:104810007B6804331946104600F06CFA7B6801226D
:1048200083F846207B68012283F83E207B680122C2
:1048300083F83F207B68012283F840207B680122B7
:1048400083F841207B68012283F842207B680122A3
:1048500083F843207B68012283F844207B6801228F
:1048600083F845207B68012283F83D200023184609
:104870000837BD4680BD000080B485B000AF7860C9
:104880007B6893F83D30DBB2012B01D001233AE085
:104890007B68022283F83D207B681B68DA687B68AE
:1048A0001B6842F00102DA607B681B68184A934279
:1048B0000ED07B681B68B3F1804F09D07B681B6802
:1048C000144A934204D07B681B68134A934211D167
:1048D0007B681B689B6803F00703FB60FB68062B83
:1048E00010D07B681B681A687B681B6842F0010265
:1048F0001A6007E07B681B681A687B681B6842F0D7
:1049000001021A60002318461437BD4680BC704768
:10491000002C0140000400400008004080B582B037
:1049200000AF78607B681B681B6903F00203022BF1
:1049300022D17B681B68DB6803F00203022B1BD1CA
:104940007B681B686FF002021A617B6801221A778C
:104950007B681B689B6903F00303002B03D0786816
:1049600000F0ADF905E0786800F0A0F9786800F093
:10497000AFF97B6800221A777B681B681B6903F01C
:104980000403042B22D17B681B68DB6803F004035B
:10499000042B1BD17B681B686FF004021A617B68D3
:1049A00002221A777B681B689B6903F44073002B13
:1049B00003D0786800F083F905E0786800F076F9B4
:1049C000786800F085F97B6800221A777B681B689D
:1049D0001B6903F00803082B22D17B681B68DB6886
:1049E00003F00803082B1BD17B681B686FF00802DB
:1049F0001A617B6804221A777B681B68DB6903F005
:104A00000303002B03D0786800F059F905E07868BB
:104A100000F04CF9786800F05BF97B6800221A77A7
:104A20007B681B681B6903F01003102B22D17B6885
:104A30001B68DB6803F01003102B1BD17B681B681D
:104A40006FF010021A617B6808221A777B681B6876
:104A5000DB6903F44073002B03D0786800F02FF972
:104A600005E0786800F022F9786800F031F97B6899
:104A700000221A777B681B681B6903F00103012B76
:104A80000ED17B681B68DB6803F00103012B07D1A3
:104A90007B681B686FF001021A61786800F0FDF80E
:104AA0007B681B681B6903F08003802B0ED17B6839
:104AB0001B68DB6803F08003802B07D17B681B68D1
:104AC0006FF080021A61786800F073FA7B681B68E7
:104AD0001B6903F04003402B0ED17B681B68DB6829
:104AE00003F04003402B07D17B681B686FF0400246
:104AF0001A61786800F0F5F87B681B681B6903F0A1
:104B00002003202B0ED17B681B68DB6803F0200399
:104B1000202B07D17B681B686FF020021A61786830
:104B200000F03EFA00BF0837BD4680BD80B584B0B6
:104B300000AF786039607B6893F83C30012B01D17D
:104B40000223A6E07B68012283F83C207B680222D6
:104B500083F83D207B681B689B68FB60FB6823F043
:104B60007703FB60FB6823F47F43FB607B681B6873
:104B7000FA689A603B681B68402B67D0402B0BD8C3
:104B8000102B73D0102B02D8002B6FD078E0202B85
:104B90006CD0302B6AD073E0702B0DD0702B04D802
:104BA000502B33D0602B41D06AE0B3F5805F66D0E4
:104BB000B3F5005F17D063E07B6818683B689968BD
:104BC0003B685A683B68DB6800F06DF97B681B68DE
:104BD0009B68FB60FB6843F07703FB607B681B68A6
:104BE000FA689A604CE07B6818683B6899683B6893
:104BF0005A683B68DB6800F056F97B681B689A6866
:104C00007B681B6842F480429A6039E07B681868D0
:104C10003B6859683B68DB681A4600F0CDF87B6852
:104C20001B685021184600F024F929E07B681868B9
:104C30003B6859683B68DB681A4600F0EBF87B6814
:104C40001B686021184600F014F919E07B681868A9
:104C50003B6859683B68DB681A4600F0ADF87B6832
:104C60001B684021184600F004F909E07B681A68C7
:104C70003B681B681946104600F0FBF800E000BFD7
:104C80007B68012283F83D207B68002283F83C206A
:104C9000002318461037BD4680BD80B483B000AFF6
:104CA000786000BF0C37BD4680BC704780B483B0CD
:104CB00000AF786000BF0C37BD4680BC704780B441
:104CC00083B000AF786000BF0C37BD4680BC704732
:104CD00080B483B000AF786000BF0C37BD4680BCA5
:104CE000704780B483B000AF786000BF0C37BD461A
:104CF00080BC704780B485B000AF786039607B6855
:104D00001B68FB607B68294A93420BD07B68B3F138
:104D1000804F07D07B68264A934203D07B68254AA0
:104D2000934208D1FB6823F07003FB603B685B682B
:104D3000FA681343FB607B681C4A93420BD07B6884
:104D4000B3F1804F07D07B68194A934203D07B6848
:104D5000184A934208D1FB6823F44073FB603B6818
:104D6000DB68FA681343FB60FB6823F080023B6852
:104D70005B691343FB607B68FA681A603B689A685A
:104D80007B68DA623B681A687B689A627B68074ACC
:104D9000934203D13B681A697B681A637B680122DE
:104DA0005A6100BF1437BD4680BC7047002C0140DB
:104DB000000400400008004080B487B000AFF860F5
:104DC000B9607A60FB681B6A7B61FB681B6A23F031
:104DD0000102FB681A62FB689B693B613B6923F037
:104DE000F0033B617B681B013A6913433B617B69BC
:104DF00023F00A037B617A69BB6813437B61FB681C
:104E00003A699A61FB687A691A6200BF1C37BD462D
:104E100080BC704780B487B000AFF860B9607A603A
:104E2000FB681B6A23F01002FB681A62FB689B692F
:104E30007B61FB681B6A3B617B6923F470437B6188
:104E40007B681B037A6913437B613B6923F0A003F2
:104E50003B61BB681B013A6913433B61FB687A699C
:104E60009A61FB683A691A6200BF1C37BD4680BC74
:104E7000704780B485B000AF786039607B689B680C
:104E8000FB60FB6823F07003FB603A68FB68134328
:104E900043F00703FB607B68FA689A6000BF143731
:104EA000BD4680BC704780B487B000AFF860B96081
:104EB0007A603B60FB689B687B617B6923F47F437E
:104EC0007B613B681A027B681A43BB6813437A69AB
:104ED00013437B61FB687A699A6000BF1C37BD464B
:104EE00080BC704780B485B000AF786039607B6863
:104EF00093F83C30012B01D1022346E07B6801226C
:104F000083F83C207B68022283F83D207B681B6885
:104F10005B68FB607B681B689B68BB60FB6823F079
:104F20007003FB603B681B68FA681343FB607B6897
:104F30001B68FA685A607B681B68164A93420ED059
:104F40007B681B68B3F1804F09D07B681B68124AED
:104F5000934204D07B681B68104A93420CD1BB6813
:104F600023F08003BB603B685B68BA681343BB6097
:104F70007B681B68BA689A607B68012283F83D20D1
:104F80007B68002283F83C20002318461437BD4676
:104F900080BC7047002C0140000400400008004025
:104FA00080B483B000AF786000BF0C37BD4680BCD2
:104FB000704780B483B000AF786000BF0C37BD4647
:104FC00080BC7047014B1868704700BFBC000020D0
:104FD00070B500250C4E0D4CA41BA410A54209D1A0
:104FE00000F092FB00250A4E0A4CA41BA410A54217
:104FF00005D170BD56F8253098470135EEE756F8D3
:10500000253098470135F2E798570008985700086F
:10501000985700089C57000803460244934200D169
:10502000704703F8011BF9E72DE9F84FB64B21F063
:1050300000469E4204460D468B4617DDB34B9E420A
:1050400001DC09D140B122462B4620462946FBF718
:1050500085F804460D4605E0BBF1000FAC4C40F36B
:105060002181AC4D20462946BDE8F88FAA4B9E42CF
:1050700011DCA3F1DE739E420ADC8BA3D3E900238B
:10508000FBF76CF80022A54BFBF7AEFC0028E9D13A
:105090004FF0FF3A27E000F051F9A14B04469E4241
:1050A0000D4600F3B880A3F550239E4200F39C8088
:1050B00002460B46FBF752F80022984BFBF74CF8E0
:1050C000002206460F464FF0804320462946FBF754
:1050D00045F802460B4630463946FBF71FFB4FF0BA
:1050E000000A04460D4622462B4620462946FBF779
:1050F000EBF902460B4680468946FBF7E5F96CA3BF
:10510000D3E9002306460F46FBF7DEF96AA3D3E98D
:105110000023FBF723F832463B46FBF7D5F968A39B
:10512000D3E90023FBF71AF832463B46FBF7CCF9EC
:1051300065A3D3E90023FBF711F832463B46FBF7A2
:10514000C3F963A3D3E90023FBF708F832463B46D3
:10515000FBF7BAF960A3D3E90023FAF7FFFF424651
:105160004B46FBF7B1F95EA3D3E90023804689469D
:1051700030463946FBF7A8F95BA3D3E90023FAF7D9
:10518000EBFF32463B46FBF79FF959A3D3E90023D7
:10519000FAF7E2FF32463B46FBF796F956A3D3E90E
:1051A0000023FAF7D9FF32463B46FBF78DF954A3AB
:1051B000D3E90023FAF7D0FF32463B46FBF784F9E8
:1051C00002460B4640464946FAF7C8FF22462B46A0
:1051D000FBF77AF9BAF1FF3F02460B4644D120466D
:1051E0002946FAF7B9FF34E700224C4BFAF7B4FF2F
:1051F000002206460F46494B20462946FAF7AEFFE5
:1052000002460B4630463946FBF788FA4FF0010A52
:1052100004460D4667E7434B9E421ADC0022424B90
:10522000FAF79AFF002206460F463F4B20462946D2
:10523000FBF74AF90022394BFAF790FF02460B467A
:1052400030463946FBF76AFA4FF0020A04460D462B
:1052500049E702460B4600203449FBF75FFA4FF05E
:10526000030A04460D463EE7314B324E4FEACA0A66
:1052700056449A44DAE90023FAF76EFF22462B4699
:10528000FAF76AFF02460B46D6E90001FAF764FF17
:10529000BBF1000F04460D46BFF6E4AE01F100433A
:1052A0001D46DFE6244DDDE69C7500883CE4377E34
:1052B00011DA22E33AAD903FEB0D76244B7BA93F08
:1052C000513DD0A0660DB13F6E204CC5CD45B73FD6
:1052D000FF8300922449C23F0D5555555555D53F82
:1052E0002F6C6A2C44B4A2BF9AFDDE522DDEAD3F76
:1052F0006D9A74AFF2B0B33F711623FEC671BC3F16
:10530000C4EB98999999C93FFFFF0F440000F07FC3
:10531000182D4454FB21F93FFFFFDB3F0000F03F15
:10532000FFFFF23FFF7F03400000F83F0000F0BFA7
:105330007057000850570008FB21F9BF21F00043C7
:105340001946704700F054B82DE9F04F8BB0044671
:105350000D4600F02BF9244B804693F900A08946B6
:10536000BAF1FF3F2BD022462B4620462946FBF7B9
:1053700045FB834618BB0026002732463B462046A5
:105380002946FBF713FBD0B101230093174BCDF84F
:1053900020B00193CDE90445CDE90245BAF1000FF3
:1053A00012D1CDE90667684600F0ACF9B8B1089BA8
:1053B0001BB1FFF707FE089B0360DDE90689404645
:1053C00049460BB0BDE8F08F32463B463046394681
:1053D000FBF7A4F9BAF1020FCDE90601E3D1FFF71B
:1053E000F1FD21230360E2E720010020905700082F
:1053F0002DE9F84F564223F0004C1643DFF8A891F0
:105400004CEAD6764E4504460D469E4608D846429E
:1054100021F00047064347EAD6764E45884606D92E
:1054200020462946FAF79AFE04460D4630E003F17D
:10543000404606F58016164303D1BDE8F84FFFF746
:10544000F3BD9E1706F0020646EAD17657EA000140
:1054500007D1022E79D0032E1AD141A5D5E90045F6
:1054600016E05CEA020106D1B8F1000F71DA3EA540
:10547000D5E900450CE0CC4523D1674514D1022E77
:105480000AD0032E0CD0012E5BD139A5D5E90045F9
:1054900020462946BDE8F88F37A5D5E90045F7E74E
:1054A00037A5D5E90045F3E7022E4ED0032ED4D020
:1054B000012E4FF0000402D14FF00045E8E700252F
:1054C000E6E74F45D0D0A7EB0C073F153C2F1EDC7D
:1054D000002B01DA3C371EDB20462946FBF71EF97C
:1054E000FFF72CFFFFF7A0FD04460D46012E15D057
:1054F000022E17D0002ECBD023A3D3E900232046C1
:105500002946FAF729FE22A3D3E9002316E022A5B3
:10551000D5E90045EAE700240025E7E705F1004367
:105520001D46B5E718A3D3E9002320462946FAF71C
:1055300013FE02460B4616A1D1E90001FAF70CFE54
:1055400072E717A5D5E90045A2E711A5D5E9004501
:105550009EE711A5D5E900459AE700BFAFF30080AB
:10556000182D4454FB2109C0182D4454FB21F9BFC8
:10557000182D4454FB21E9BFD221337F7CD902404E
:10558000D221337F7CD902C0075C143326A6A13C0C
:10559000182D4454FB210940182D4454FB21F93F98
:1055A000182D4454FB21E93F0000F07F544B2DE9B6
:1055B000F0418B4306460D460A460C460FD1024683
:1055C0000B46FAF781FF02460B4630462946FAF7AA
:1055D000C5FD06460D4630462946BDE8F081002946
:1055E000074603460EDC21F0004C5CEA0707F2D0C8
:1055F00041B102460B46FAF7AFFD02460B46FBF7F8
:105600008DF8E6E7121574D0A2F2FF32D5074FF0FD
:105610000005C4F3130448BFD90F44F4801444BFF9
:105620005B0001EB44045110DA0F02EB44042846FE
:1056300016224FF400165B008719A742DEBFB81987
:10564000E41BAD19DF0F013A07EB44044FEA4303B3
:105650004FEA5606F0D14FF0200C96464FF0004628
:10566000844206EB0E0702DC12D19F4210D8002FB5
:1056700007EB060E42DABEF1000F3FDB00F1010836
:10568000241A40469F4288BF04F1FF34DB1B32449A
:105690006400BCF1010C04EBD3744FEA56064FEAE8
:1056A0004303DDD1234306D0541C0BBF62460132B5
:1056B000013522F001026B105208E80703F17F5315
:1056C00003F5001348BF42F0004203EB01551646B4
:1056D00081E7DC0A15395B05002CFAD0E6020AD511
:1056E000C2F1200023FA00F0551E934004434A1BE8
:1056F0008AE71146F0E764000132EFE78046BFE732
:105700000000F07F00207047F8B500BFF8BC08BC6F
:105710009E467047F8B500BFF8BC08BC9E4670476F
:1057200002030405060708090A0B0C0D0E0F1010E2
:10573000010200000000000000000000010203045C
:105740000607080900000000010203040000000031
:105750004FBB610567ACDD3F182D4454FB21E93F89
:105760009BF681D20B73EF3F182D4454FB21F93F78
:10577000E2652F227F2B7A3C075C143326A6813CFE
:10578000BDCBF07A8807703C075C143326A6913CA9
:08579000737172740000000047
:0457980035010008CF
:04579C0011010008EF
:1057A000000000E04D62503F000000C07493683F6D
:1057B000000000E051B89E3F000000000000000023
:1057C00000000000000000000000000000000000D9
:1057D00000000000000000000000000000000000C9
:1057E0000000000000000000000000E04D62503F9B
:1057F000000000C07493683F000000E051B89E3F75
:105800000000000000000000000000000000000098
:105810000000000000000000000000000000000088
:105820000000000000000000000000000000000078
:105830000AD7A33ECDCC4C3D0AD7233C0AD7A33C84
:10584000CDCCCC3DCDCCCC3E000060410000004032
:105850000024F4001000000001000000C00000203F
:105860000000000000000000000000000000000038
:105870000000000000000000000000000000000028
:105880000000000000000000000000000000000018
:105890000000000000000000000000000000000008
:1058A00000000000000000000000000000000000F8
:1058B00000000000000000000000000000000000E8
:0458C00001000000E3
:04000005080029DDE9
:00000001FF
